:100000000C94F3020C941B030C941B030C941B0321
:100010000C941B030C941B030C941B030C945C1D8D
:100020000C941B030C941B030C941B030C941B03D8
:100030000C941B030C941B030C941B030C941B03C8
:100040000C946B190C941B030C94641B0C943E1BB6
:100050000C941B030C941B030C941B030C941B03A8
:100060000C94C2270C941B03DE202B213A213E2145
:100070005B216E217921A32141542B434950434CEC
:100080004F53450041542B43495053454E443D0086
:100090004572726F7200525443207265616420652C
:1000A00072726F7200726573657420746865205493
:1000B000696D6500417474656D7074696E67207454
:1000C0006F20002E0054656D703A202020202020E3
:1000D0002020200020202020002F002F00446174C9
:1000E000652028442F4D2F59293A20002020202018
:1000F0002020003A003A0054696D653A2020202003
:1001000020202020200020202053657474696E6711
:10011000730020202020456E64206F662020202060
:10012000002020202020202020202020200020002F
:1001300057616B65204D696E7574653A202000200B
:100140002020202020202020202020002000576177
:100150006B6520686F75723A202020200030004DBA
:10016000696E757465204F66663A20002020003065
:1001700000486F7572204F66663A200020003000FC
:100180004D696E757465204F6E3A20002020200066
:100190003000486F7572204F6E3A200043757272BE
:1001A000656E74204C696768743A00202020202016
:1001B000202020202020004C696768742054726938
:1001C000703A2020200054656D7020436E74726C6C
:1001D0003A2000200030004D696E2054656D702E6D
:1001E0003A2000200030004D61782054656D702E5B
:1001F0003A200020200042757A7A416C6572743A88
:1002000020003000303000436F756E74646F776E7D
:100210003A200041542B434950434C4F5345004131
:10022000544530004154453000005EBCE2613FDD82
:1002300083C29C7E20A3FD1F419DC3217FFCA24061
:100240001E5F01E3BD3E6082DC237D9FC1421CFE38
:10025000A0E1BF5D0380DE3C62BEE0025CDF816343
:100260003D7C22C09E1D43A1FF4618FAA427799B1E
:10027000C584DA3866E5BB5907DB856739BAE40619
:10028000581947A5FB7826C49A653BD987045AB804
:10029000E6A7F91B45C6987A24F8A6441A99C725FB
:1002A0007B3A6486D85B05E7B98CD2306EEDB351EA
:1002B0000F4E10F2AC2F7193CD114FADF3702ECCC9
:1002C00092D38D6F31B2EC0E50AFF1134DCE9072D0
:1002D0002C6D33D18F0C52B0EE326C8ED0530DEFAB
:1002E000B1F0AE4C1291CF2D73CA947628ABF517AE
:1002F000490856B4EA6937D58B5709EBB536688A91
:10030000D495CB2977F4AA4816E9B7550B88D6348B
:100310006A2B7597C94A14F6A8742AC896154BA972
:10032000F7B6E80A54D7896B3500000000000000DA
:100330005F00000007000700147F147F14242A7F49
:100340002A1223130864623649552250000503001F
:1003500000001C2241000041221C0014083E081429
:1003600008083E0808005030000008080808080087
:100370006060000020100804023E5149453E0042E2
:100380007F400042615149462141454B31181412CA
:100390007F1027454545393C4A49493001710905D7
:1003A000033649494936064949291E0036360000B8
:1003B00000563600000814224100141414141400CE
:1003C000412214080201510906324979413E7E1149
:1003D00011117E7F494949363E414141227F4141C9
:1003E000221C7F494949417F090909013E41494988
:1003F0007A7F0808087F00417F41002040413F018B
:100400007F081422417F404040407F020C027F7FE2
:100410000408107F3E4141413E7F090909063E41E3
:1004200051215E7F09192946464949493101017F19
:1004300001013F4040403F1F2040201F3F403840C7
:100440003F63140814630708700807615149454366
:10045000007F41410002040810200041417F000458
:1004600002010204404040404000010204002054C8
:100470005454787F484444383844444420384444F1
:10048000487F3854545418087E0901020C525252C5
:100490003E7F0804047800447D40002040443D0035
:1004A0007F1028440000417F40007C041804787CC1
:1004B0000804047838444444387C1414140808149C
:1004C00014187C7C080404084854545420043F4405
:1004D00040203C4040207C1C2040201C3C403040C0
:1004E0003C44281028440C5050503C4464544C4424
:1004F000000836410000007F00000041360800106F
:1005000008081008784641467820202020204672AE
:100510006F6D2045455046524F4D00202020202031
:1005200046726F6D2044656661756C7473004C6F24
:100530006164696E67202020202020205661726946
:1005400061626C657300436F6E6E656374696E679C
:1005500020455350003000000000002300260029F1
:10056000000404040404040404020202020202035C
:100570000303030303010204081020408001020466
:1005800008102001020408102000000000240027A9
:10059000002A0000000000250028002B00000000B9
:1005A0000800020100000304070000000000000032
:1005B0000041542B43574D4F44453D310041542B8E
:1005C0004349504D55583D30004154453000415449
:1005D000002B43574A41503A220041542B43574A7B
:1005E00041503F00832D11241FBECFEFD8E0DEBF66
:1005F000CDBF12E0A0E0B1E0E6EEF7E602C0059064
:100600000D92A631B107D9F724E0A6E1B2E001C00E
:100610001D92A53CB207E1F712E0C3EFD2E004C09F
:100620002197FE010E94932EC23FD107C9F70E9475
:100630000D2B0C94F1330C9400002F923F924F92AB
:100640005F926F927F928F929F92AF92BF92CF9262
:10065000DF92EF92FF920F931F93CF93DF93CDB76B
:10066000DEB7C656D1090FB6F894DEBF0FBECDBFB8
:100670000DB71EB7A7961FAF0EAFA79780910001C9
:10068000882309F4C1C10E945F19009116021091DC
:1006900017022091180230911902DC01CB01801B56
:1006A000910BA20BB30B883E9340A105B10508F452
:1006B000E3C0E0911A04F0911B041386158614869A
:1006C000DF011B96CF0103961E92A817B907E1F729
:1006D000BE016F5C7F4FCF010E94A31B882329F0CE
:1006E00067E0CE01C1960E94961BBE016F5F7F4FEF
:1006F000CE01C1960E94272268E0CE0101960E9499
:10070000961B9985891389C08A8190E0982F882744
:100710002981822B29A92232B9F12832A9F120316D
:1007200009F081C01885BC0175956795072E000CEE
:10073000880B990B0E944B3220E030E040E85EE3EA
:100740000E94D72E6B017C01812F90E02F81821BAC
:100750009109BC01990F880B990B0E944B324B01F8
:100760005C01612F70E080E090E00E9449329B01C3
:10077000AC01C501B4010E94442F9B01AC01C7012B
:10078000B6010E94D82E36C02D812F33B1F1A0F4CE
:100790002F3109F048C0BC01F3E075956795FA95D3
:1007A000E1F7072E000C880B990B0E944B3220E0DA
:1007B00030E040E05FE31CC02F3569F02F3799F53A
:1007C000BC01990F880B990B0E944B3220E030E05E
:1007D00040E85DE30DC0BC0175956795072E000CE0
:1007E000880B990B0E944B3220E030E040E05EE342
:1007F0000E94AA326B017C0116C0BC0175956795F9
:1008000075956795072E000C880B990B0E944B324B
:1008100020E030E040E85EE3EBCFC12CD12C6EEF5E
:10082000E62E62ECF62EC0924202D0924302E09293
:100830004402F092450280911A0490911B040E9498
:10084000261D40E06CEC80911A0490911B040E94DC
:10085000E41C4091150464E480911A0490911B04F7
:100860000E94E41C0E945F196093160270931702A5
:1008700080931802909319026D961FAE6D976C9637
:100880001FAE6C97E090380211E01093710288E679
:100890008093920210922F0410922E0460E082E363
:1008A00094E00E94F62681E00E94CA21882319F074
:1008B0001092480201C61093480280917002811183
:1008C000FCCF81E08093700280936F029FEF909342
:1008D0006E0210926D0296E090936C0280934B0230
:1008E00080914B02806D80934B0280914A0281304F
:1008F00061F410924A0280914B028093BB00809178
:10090000BC0083FDF8CF85EC01C085EE8093BC0070
:10091000809170028130E1F380916D02873018F48C
:1009200080916D0201C087E0ACE4B2E02CE434E0D9
:10093000F9019E2F921B981718F49D919193F9CF6E
:100940001092310480933004873008F4B5C582E3F7
:1009500094E00E94AA26C82E8695869586958E706C
:10096000D82EDD0CDD0C8D0D9C2D9F70D82ED90E50
:1009700082E394E00E94AA26982F92959F708F7030
:10098000B82E2AE0929FB00C112482E394E00E94DA
:10099000AA26982F182F1695169516951670812F42
:1009A000880F880F180F9F70190F82E394E00E9440
:1009B000AA2682E394E00E94AA26982F82958F703F
:1009C0009F70092F3AE0839F000D112482E394E089
:1009D0000E94AA26982F82958F709F70F92E4AE068
:1009E000849FF00C112482E394E00E94AA26982FA1
:1009F0009F70925E282F22952F708AE0289F900D7D
:100A00001124C7FEACC458C50E945F1900911F0293
:100A1000109120022091210230912202DC01CB01B1
:100A2000801B910BA20BB30B883210EA9107A10532
:100A3000B10520F081E0809300017DC1893F2AE269
:100A40009207A105B10508F06BC020911A0221118F
:100A500067C00E946D2567E072E088E294E00E9422
:100A6000BC1A109110011A3018F464E072E004C04E
:100A7000143630F462E072E088E294E00E94BC1A1E
:100A8000812F0E94372666EF71E088E294E00E9491
:100A9000BC1A809125020E94372663EF71E088E23C
:100AA00094E00E94BC1A67EE71E088E294E00E9434
:100AB000BC1A80910E018A3030F465EE71E088E254
:100AC00094E00E94BC1A80910E010E94372663EECA
:100AD00071E088E294E00E94BC1A67ED71E088E260
:100AE00094E00E94BC1A80910D018A3030F465EDCB
:100AF00071E088E294E00E94BC1A80910D010E948E
:100B0000372663ED71E088E294E00E94BC1A66EC3F
:100B100071E088E294E00E94BC1A80912402B4C083
:100B20008C019D01085F1A422109310901311742E8
:100B300021053105B0F520911A02213091F50E946E
:100B40006D2567EB71E088E294E00E94BC1A409149
:100B50000C0150E0440F551F052E000C660B770B5F
:100B600088E294E00E9486256BEA71E088E294E0D6
:100B70000E94BC1A6CE971E088E294E00E94BC1A01
:100B80008EE00E94F52AAC01990F660B770B88E284
:100B900094E00E94862580911A028F5F80931A024A
:100BA000CAC08C019D01085012452109310901314B
:100BB00017422105310508F06AC020911A0222303F
:100BC00009F065C00E946D2562E971E088E294E059
:100BD0000E94BC1A80910B018A3030F460E971E008
:100BE00088E294E00E94BC1A80910B010E94372693
:100BF0006CE871E088E294E00E94BC1A60E871E061
:100C000088E294E00E94BC1A80910A018A3030F494
:100C10006EE771E088E294E00E94BC1A80910A01BC
:100C20000E9437266CE771E088E294E00E94BC1ACB
:100C300061E771E088E294E00E94BC1A80910901AA
:100C40008A3030F46FE671E088E294E00E94BC1ACA
:100C5000809109010E9437266CE671E088E294E0F9
:100C60000E94BC1A6FE571E088E294E00E94BC1A11
:100C7000809108018A3030F46DE571E088E294E0FB
:100C80000E94BC1A809108010E94372684CF8851A7
:100C90009947A109B10981319742A105B10508F031
:100CA0004AC080911A02833009F045C00E946D2528
:100CB0006EE471E088E294E00E94BC1A8091070122
:100CC0000E943726809107018A3030F46CE471E08D
:100CD00088E294E00E94BC1A6FE371E088E294E03D
:100CE0000E94BC1A60E371E088E294E00E94BC1AA2
:100CF00088E0809306010E943726809107018A30A0
:100D000030F46EE271E088E294E00E94BC1A61E285
:100D100071E088E294E00E94BC1A62E171E088E22E
:100D200094E00E94BC1A66E071E088E294E00E94C0
:100D3000BC1A10921A0285E393E090937704809393
:100D400076048091FD0390E0909379048093780479
:100D500080913103853009F0DFC280913703909193
:100D60003803885891098D35910588F48091FD03E9
:100D7000843041F48091390390913A0380974797EA
:100D800008F4A6C68091FD03843408F088C68091DB
:100D9000FD038A3108F451C08091350390913603E8
:100DA000843F914080F410927504109274048FEF88
:100DB0009FEFDC018093700490937104A093720400
:100DC000B093730458C0809137039091380385978E
:100DD0004B9798F5EBE3F3E082E090E040E050E0E1
:100DE000BA012091FD0330E0DC011196A217B30790
:100DF00054F4DF0112972D913C912750310927308F
:100E0000310508F49FC601979595879590937504D1
:100E1000809374040C972CF410927504109274044F
:100E20000CC04093700450937104609372047093EB
:100E3000730482E090E00C9419178091FD038A31CD
:100E400008F44AC080913503909136038032934074
:100E500008F4A9CF8091370390913803C6978697FD
:100E600008F48CC639C040937004509371046093A9
:100E700072047093730489E090E00C941917208138
:100E80003181255231092B31310508F087C6440FD5
:100E9000551F661F771F4160029634962091FD030F
:100EA00030E0DC011196A217B3074CF4DF01129772
:100EB0002D913C912C5031092B30310500F30197D5
:100EC0009595879590937504809374040C975CF6C0
:100ED00010927504109274048091FD03823208F41C
:100EE0004DC080913703909138030697079708F01B
:100EF00045C0EBE3F3E082E090E040E050E0BA016F
:100F00008C010F5F1F4F2091FD0330E00217130784
:100F1000DCF4DF0112972D913C9111972E5131098C
:100F20002731310508F047C6440F551F661F771F4C
:100F300041602081318134962350310925303105BB
:100F400010F40296DDCFC80101979595879590938F
:100F500075048093740440972CF4109275041092D9
:100F600074040CC040937004509371046093720435
:100F7000709373048AE090E00C9419178091FD033C
:100F80008D3048F4809178049091790418161906F0
:100F90000CF483C08FC081E090E09AAB89AB1A82D9
:100FA000198249E753E0BE016F5F7F4FCE01C196C2
:100FB0000E944E27892B21F080E090E0DC0167C081
:100FC00049E753E0BE016F5F7F4FCE01C1960E949B
:100FD0004E27019789F749E753E0BE016F5F7F4FC6
:100FE000CE01C1960E944E27892B31F700E010E018
:100FF000C12CD12C76018091FD0390E029A93AA95A
:101000002817390774F549E753E0BE016F5F7F4F3A
:10101000CE01C1960E944E275C0149E753E0BE0114
:101020006F5F7F4FCE01C1960E944E2721E0A2162E
:10103000B10451F4892B09F0BFCFCC0CDD1CEE1CA0
:10104000FF1C6894C0F80AC0AB2809F0B5CF01971F
:1010500009F0B2CFCC0CDD1CEE1CFF1C0F5F1F4F44
:10106000CACF1093750400937404C0927004D09298
:101070007104E0927204F092730483E090E0909324
:101080006D0480936C0481E090E0A0E0B0E0892BD7
:101090008A2B8B2B09F0B8C075CF81E090E09AAB1A
:1010A00089ABE0917604F0917704828193818997EE
:1010B0004E9720F080E090E0DC014AC082E090E0B2
:1010C0009AAB89AB848195810B970A9798F783E057
:1010D00090E09AAB89AB1A8219824CEB51E0BE01C9
:1010E0006F5F7F4FCE01C1960E944E27892B11F76B
:1010F0004CEB51E0BE016F5F7F4FCE01C1960E9465
:101100004E270197B9F600E010E0812C912C540194
:1011100029A93AA980917804909179042817390770
:101120000CF456C5109375040093740480927004F7
:1011300090927104A0927204B092730484E090E0E3
:1011400090936D0480936C0481E090E0A0E0B0E0A7
:10115000892B8A2B8B2B09F057C0E0917604F091F4
:10116000770482819381C697869710F00C940316BA
:10117000848195814B97459710F00C940316DF01FD
:1011800016967F0126ECE20EF11C20E030E040E0F4
:1011900050E060E070E080E090E00D911C911197CC
:1011A000095011090830110510F00C94031612961D
:1011B0000D911C911397015111090D30110508F083
:1011C00058C501E00E94A02E21601496AE15BF05FF
:1011D00021F720937004309371044093720450936C
:1011E000730400E20E94BB2E20936E0430936F04C0
:1011F00087E090E090936D0480936C0480E390E02E
:10120000909375048093740480910F01882309F4EE
:1012100056C08091700490917104A0917204B091B5
:1012200073048F31904EAE4BB14481F4909105011F
:1012300080E28927809305010E945F1960933B0239
:1012400070933C0280933D0290933E028091700423
:1012500090917104A0917204B09173048F32904DFB
:10126000AE4BB14481F49091050180E189278093D0
:1012700005010E945F1960933B0270933C028093CA
:101280003D0290933E028091700490917104A09170
:101290007204B09173048F3810E791071EEBA10719
:1012A00011E4B10709F0F3C49091050188E08927A2
:1012B000809305011092240281E00E9444208091D5
:1012C000700490917104A0917204B09173048F39ED
:1012D0009046AE4BB14441F490910F0181E08927D3
:1012E00080930F010E946820809170049091710496
:1012F000A0917204B09173048F35904AAE4BB14403
:1013000031F49091240281E089278093240282E0C5
:10131000809331031092FD030E94222690E067968D
:101320009FAF8EAF679767968EAD9FAD6797CD974E
:101330000CF4D4C48FE00E94F52A883C91050CF08F
:10134000CDC4109200010E945F1960931F02709338
:10135000200280932102909322020C948C14D0924C
:101360003802DE1409F4E7CC10933A02B092390245
:1013700000933702F0923602892F90E08E54984FF6
:1013800090934702809346020E946D2567EF70E0BC
:1013900088E294E00E94BC1A80913A0290E00E9498
:1013A0002F2065EF70E088E294E00E94BC1A8091E3
:1013B000390290E00E942F2063EF70E088E294E011
:1013C0000E94BC1A8091380290E00E942F206CEE9F
:1013D00070E088E294E00E94BC1A6DED70E088E253
:1013E00094E00E94BC1A8091370290E00E942F2066
:1013F0006BED70E088E294E00E94BC1A80913602A6
:1014000090E00E942F2069ED70E088E294E00E9455
:10141000BC1A409146025091470260E070E02AE019
:1014200088E294E00E94F51A64ED70E088E294E0AE
:101430000E94BC1A65EC70E088E294E00E94BC1A3D
:10144000C0904202D0904302E0904402F0904502E6
:10145000C701B6010E94BD2F6D966FAF6D976D9657
:101460008FAD6D97682F70E080E090E00E944B3266
:101470009B01AC01C701B6010E94D72E20E030E0ED
:1014800048EC52E40E94AA320E94BD2F6C966FAFC6
:101490006C976D968FAD6D9790E00E942F2063EC56
:1014A00070E088E294E00E94BC1A6C968FAD6C9755
:1014B00090E00E942F203FCC80914802882309F4BD
:1014C000FAC00E946D2564EB70E088E294E00E940F
:1014D000BC1A65EA70E088E294E00E94BC1A809130
:1014E0000704811103C081E080930704DE01119697
:1014F0006D0180E3FD0111928A95E9F78BE1898303
:10150000809107048330D1F128F4813051F082308A
:1015100059F011CC843009F44AC0853009F461C017
:101520000ACC0E94DA251AC00E945F1900910304B8
:10153000109104042091050430910604DC01CB01D4
:10154000801B910BA20BB30B803D9740A105B10509
:1015500008F4F1CB81E591E00E94BC25809107045D
:101560008F5F809307040E945F1960930304709358
:1015700004048093050490930604DDCB0E945F1958
:101580000091030410910404209105043091060495
:10159000DC01CB01801B910BA20BB30B803D97406C
:1015A000A105B10508F4C7CB0E949923D7CF0E94AB
:1015B0005F190091030410910404209105043091F7
:1015C0000604DC01CB01801B910BA20BB30B803115
:1015D0009742A105B10508F4AECB809107048F5F57
:1015E00067C08DE591E00E94BC2560ED77E080E06A
:1015F00090E00E94251980E990E06B968FAF6B9781
:1016000061E070E0CE01865A9F4F0E94AB238111AA
:1016100092CB64E870E083E992E00E94BC1A40E358
:1016200050E060E070E083E992E00E9486250E942D
:10163000C42282E891E00E944C248823B9F08601FC
:1016400050E3F52EFC0CD8016D918D0183E992E0F9
:101650000E94331865E070E080E090E00E94251958
:10166000F012F1CF00E010E0F12C10C088E790E01C
:101670000E94CB2560CB0F30110521F10F5F1F4F6A
:1016800064E670E080E090E00E94251983E992E032
:101690000E94FC17892BB1F4EECF0E945F19609372
:1016A000030470930404809305049093060483E07C
:1016B0008093070440CB66E970E088E294E00E94E2
:1016C000BC1A39CB83E992E00E94DA178A3321F001
:1016D000F394BBE3FB12DACF65E070E080E090E0CA
:1016E0000E942519E12CF12C83E992E00E94FC175D
:1016F000181619068CF583E992E00E94DA17E1E3E7
:10170000EE16F10424F4F601EE0DFF1D808365E072
:1017100070E080E090E00E942519FFEFEF1AFF0AC9
:1017200020E3E216F10404F783E992E00E94FC173B
:10173000892BD1F683E992E00E94FC17892BA1F650
:101740000F30110589F20F5F1F4F64E670E080E0F3
:1017500090E00E942519EECF89A590E0982F882768
:101760002AA5822BA0E0B0E0DC01992788274BA5B1
:1017700050E0542F44272CA5422B60E070E0842BCE
:10178000952BA62BB72B6C017D0130E8C31A3EE7E1
:10179000D30A3AEAE30A33E8F30A81E591E00E94CA
:1017A000BC258CE3482E512C612C712CC701B6014D
:1017B000A30192010E94C033A5966CAF7DAF8EAF9E
:1017C0009FAFA59790E1892E9EE0992EA12CB12C78
:1017D000C701B601A50194010E94C033A301920183
:1017E0000E94C033A1962CAF3DAF4EAF5FAFA19723
:1017F0006E963FAC6E9720E8422E21E5522E66246D
:101800006394712CC701B601A30192010E94C033F9
:10181000A50194010E94C03349015A01B701A601F4
:10182000A5960CAD1DAD2EAD3FADA597401B510B40
:10183000620B730B2CE36F96AEADBFAD6F972A9F13
:10184000C0012B9F900D1124092E000CAA0BBB0B7D
:10185000481B590B6A0B7B0B20E13EE0829EC001C6
:10186000839E900D929E900D1124092E000CAA0BC0
:10187000BB0B8A019B01081B190B2A0B3B0BC901EF
:10188000B801A30192010E94C03389019A01EDE6DB
:10189000F1E0C801BF010E947F2ECB018E9FB001F5
:1018A0008F9F700D9E9F700D1124061B170B9C01BE
:1018B0003695279536952795A801421B530B22E0B4
:1018C000280D283120F02AEE280D4F5F5F4F8E54EF
:1018D000984FA296EFACA297E3941CE3E1120EC0DE
:1018E0006E963FAC6E973394311207C02F5FE12C98
:1018F000312C283119F420E001C0E12C4F3431E0C3
:10190000530790F0BC0163707727672B49F44F347D
:10191000A1E05A0711F40C9422174F54514002C011
:101920004E5451406CE0B2C04133B1E05B0770F0FF
:10193000BC0163707727672B11F00C941F1742339B
:10194000E1E05E0710F00C94221712C04231F1E082
:101950005F0790F0BC0163707727672B11F00C9440
:101960002717433101E0500710F00C942A1714C0D8
:101970004231B1E05B07A8F7443F510580F0BC015C
:1019800063707727672B11F00C942F17453F510593
:1019900010F00C94321713C0443F5105B8F7453D81
:1019A000510580F0BC0163707727672B11F00C9410
:1019B0003717463D510510F00C943A1713C0453DBA
:1019C0005105B8F7463B510580F0BC01637077279D
:1019D000672B11F00C944217473B510510F00C9403
:1019E0003F1713C0463B5105B8F74839510580F001
:1019F000BC0163707727672B11F00C9447174939A6
:101A0000510510F00C944A1713C048395105B8F726
:101A10004937510580F0BC0163707727672B11F0BF
:101A20000C944F174A37510510F00C94521714C0FC
:101A300049375105B8F74B35510588F0BC01637043
:101A40007727672B11F00C9457174C35510510F080
:101A50000C945A170C94F1154B355105B0F74C33D3
:101A6000510560F0BC0163707727672B11F00C946F
:101A70005F174D33510510F00C9462174032510539
:101A800020F04F51510962E001C061E0032D0E9436
:101A9000431E882309F401CE109207044CC980919B
:101AA000390390913A03825491098E9708F06FC9D7
:101AB00020E030E080E090E0DC01F901E55CFC4FE3
:101AC00040815181495051094930510590F05FC919
:101AD00080913B0390913C030997099708F052C904
:101AE00010927504109274048FEF9FEFDC010C9438
:101AF000F815F901E35CFC4F4081518146515109D1
:101B00004131510590F4880F991FAA1FBB1F8160B6
:101B10002C5F3F4F2038310581F620E230E03093D2
:101B20007504209374040C94F8154081518146503B
:101B300051094730510508F02AC9880F991FAA1F7B
:101B4000BB1FE6CF20813181235131092F30310570
:101B500040F4440F551F661F771F4160029634966C
:101B600040C9208131812A5031092930310508F0DE
:101B700064C9440F551F661F771FF0CF809139034A
:101B800090913A03C697869708F0A6C9EDE3F3E073
:101B900083E090E040E050E0BA0180C920813181CB
:101BA0002C5031092A30310508F096C9440F551FD1
:101BB000661F771F71C92D913C912C5031092B3034
:101BC000310508F0DBC9440F551F661F771FB1C9E7
:101BD0004CEB51E0BE016F5F7F4FCE01C1960E947A
:101BE0004E276C010330110571F04CEB51E0BE0142
:101BF0006F5F7F4FCE01C1960E944E277C0103305C
:101C00001105D9F40DC04CEB51E0BE016F5F7F4F61
:101C1000CE01C1960E944E27C816D90631F34ACA92
:101C20004CEB51E0BE016F5F7F4FCE01C1960E9429
:101C30004E27E816F90609F03DCAC114D10459F43B
:101C4000EA94EF2809F036CA880C991CAA1CBB1C20
:101C5000689480F80BC0CA94CD2809F02BCAEF28ED
:101C600009F028CA880C991CAA1CBB1C0F5F1F4FC7
:101C70004FCA12960D911C9113970450110905300B
:101C8000110508F0C0C701E00E94A02E9ECA8F3B3C
:101C900020E492072EEBA20721E4B20721F49091F1
:101CA000050184E004CB8F3330EC93073EEBA307B0
:101CB00031E4B30721F49091050182E0F8CA8F3432
:101CC000904BAE4BB14409F0F7CA9091050181E009
:101CD00089278093050110922302EECA67968EAD84
:101CE0009FAD6797CD9724F080910F01811110C6A9
:101CF00067968EAD9FAD6797CD972CF080910F01C1
:101D0000882309F410C69091070180913A02981334
:101D100014C0909106018091390298130EC08091F1
:101D20003802813051F480930F0180910501806861
:101D30008093050181E00E94442080912302882342
:101D400041F190913A0280910B0198130DC02091BE
:101D5000390280910A01281307C08091050180FD96
:101D600003C08160809305018091090198130EC022
:101D70009091390280910801981308C09091050153
:101D800090FF04C081E089278093050181E00E94D3
:101D9000442080912402882309F46BC0C090420241
:101DA000D0904302E0904402F090450220E030E001
:101DB00040EC51E4C701B6010E94443287FF05C0E0
:101DC0008091050182608093050120E030E04CEBBA
:101DD00051E4C701B6010E94443287FF05C08091DB
:101DE000050184608093050120E030E048EB51E478
:101DF000C701B6010E94443287FF05C080910501EA
:101E000088608093050120E030E04CEC51E4C7018C
:101E1000B6010E94EC2F18163CF4809105018260F7
:101E200092E089278093050120E030E040ED51E405
:101E3000C701B6010E94EC2F18163CF480910501F1
:101E4000846094E089278093050120E030E044ED30
:101E500051E4C701B6010E94EC2F18163CF48091A2
:101E60000501886098E089278093050181E00E9440
:101E7000442086E00E94F02820914102892B11F035
:101E80002E7F01C021602093410287E00E94F0284C
:101E900020914102892B11F02D7F01C022602093F7
:101EA000410288E00E94F02820914102892B11F024
:101EB0002B7F01C024602093410289E00E94F0281A
:101EC00020914102892B11F4277F15C0809138029F
:101ED00080933502809139028093340280913A02D6
:101EE00080933302809137028093320280913602D0
:101EF0008093310228602093410290910C048091DC
:101F0000410291FF02C0806101C08F7E8093410237
:101F100080910F01882319F082E00E944420809173
:101F20000704811110C410910C0411FF7FC180912E
:101F30001304813069F0823009F08BC07E0101E327
:101F4000E00EF11C87E0D7011D928A95E9F72AC0BF
:101F50000E94E11E7EC026E030E0A90141505109F7
:101F6000F701E40FF51F9081F701E20FF31F908353
:101F70009A01452B91F789AB89A9843521F189A96B
:101F80008B3419F48AA98F3479F189A9833721F424
:101F90008AA9893609F4CBC462E070E080E090E061
:101FA0000E94251983E992E00E94FC17892B09F40D
:101FB000D9C483E992E00E94DA178B3261F68091EE
:101FC00013048F5F44C08AA98134C9F680910C0440
:101FD000836093E0892780930C040E94C42284E2EA
:101FE00092E00E94CB25BEC48BA9803271F68CA9E9
:101FF000843459F68DA98E3441F68EA9853429F69C
:102000008FA9833511F601E00E945F19C0900F047B
:10201000D0901004E0901104F0901204AB01BC01C8
:102020004C195D096E097F098091FE039091FF03B1
:10203000092E000CAA0BBB0B84179507A607B70740
:1020400008F492C4013029F41092080481E08093CE
:10205000130480911304833009F0E8C066EE71E048
:10206000CE01CF960E94A71A66EE71E0CE01C99606
:102070000E94A71AE12C00E0F12C83E992E00E9473
:10208000FC17892B09F4C5C083E992E00E94DA1796
:10209000D82EBCE28B13B3C0E4E4FE12B0C000350E
:1020A00009F0ADC0F9E4EF12AAC066EE71E0CE010E
:1020B00001960E94A71A83E992E00E94FC17892BDF
:1020C00031F083E992E00E94DA178A33D9F583E987
:1020D00092E00E94DA17C09709F08CC083E992E081
:1020E0000E94DA176A968FAF6A976A968FAD6A97E1
:1020F000E0910D04F0910E04808383E992E00E9448
:10210000DA1783E992E00E94DA1769968FAF699730
:10211000E0910D04F0910E0469968FAD699781836B
:102120006A968FAD6A9769969FAD69978250891BB1
:1021300068968FAF689768968FAD68978283E12C19
:10214000F12C06C0682FCE0101960E94551AB3CF1C
:1021500069968FAD699790E0E816F9069CF483E9DB
:1021600092E00E94DA17682FCE01CF960E94551A8E
:1021700062E070E080E090E00E9425190FEFE01A25
:10218000F00AE6CFE12CF12C68968FAD689790E0CD
:10219000E816F9069CF483E992E00E94DA17682FAA
:1021A000CE01C9960E94551A62E070E080E090E08E
:1021B0000E9425192FEFE21AF20AE6CFE0900D04F3
:1021C000F0900E0460E070E0CE01CF960E94B51949
:1021D000D70114969C938E931397E0900D04F09082
:1021E0000E0460E070E0CE01C9960E94B519F701B7
:1021F00096838583CE0101960E94A21A0AC062E0EE
:1022000070E080E090E00E942519E02E0F2DFD2C5B
:1022100034CF0E949B2082E080931304CE01C996A4
:102220000E94A21ACE01CF960E94A21A80910C049D
:10223000811789F08370813071F40E94B92283E69E
:102240008093130480910A0490910B04019690935B
:102250000B0480930A041370113009F06EC20E94BF
:102260005F19C0900F04D0901004E0901104F0901A
:102270001204DC01CB018C199D09AE09BF09883815
:102280009341A105B105A0F080911304853080F041
:102290001093130480910C0481FD0AC090910904ED
:1022A0009A3030F08160182710930C040E94A32903
:1022B00080911304833009F496C070F48130F1F0FA
:1022C000823009F020C28E01015C1F4F86E0D801E8
:1022D0001D928A95E9F766C0833609F4E8C1843611
:1022E00009F4E8C1843009F00EC28E01075C1F4F6B
:1022F00086E0D8011D928A95E9F78EC10E94992344
:1023000064E871E0CE0101960E94A71A68E971E0C5
:10231000CE0101960E94681A6AEA71E0CE01019628
:102320000E94681A6EEE7CE2CE0101960E94251A88
:10233000CE0101960E94CA220E94B9228091130404
:102340008F5F80931304CE0101960E94A21ADBC115
:10235000A90141505109F801E40FF51F9081F801DE
:10236000E20FF31F90839A01452B91F78FAF8FAD4A
:10237000843531F18FAD843631F421968FAD2197BC
:10238000853609F426C38FAD8B3631F421968FAD97
:1023900021978E3609F437C362E070E080E090E068
:1023A0000E94251983E992E00E94FC17892B09F409
:1023B000EFC283E992E00E94DA1725E030E0C8CF4F
:1023C00021968FAD21978134A9F680910C0482600B
:1023D00092E0892780930C040E94C4228FE192E04E
:1023E0000E94CB25D5C22DB63EB68EE0EBE1F1E0E2
:1023F000DE01119601900D928A95E1F76DEA71E088
:10240000CE01855B9F4F0E94A71A63EB71E0CE015E
:102410008B5B9F4F0E94A71A6CEB71E0CE01CF96A9
:102420000E94A71A61960EAD1FAD61972B96CEAC98
:10243000DFAC2B9725968EAC9FAC25972C2D200FCB
:10244000280D82E1820FA82EB12CEDB7FEB7EA1954
:10245000FB090FB6F894FEBF0FBEEDBF8DB79EB758
:1024600001967C01FE013196CE010F96D701319184
:102470003D93E817F907D9F7205FD70111962C9300
:1024800011971D960C933701BEE06B0E711C412C09
:10249000512C1127401651067CF4B201CE01855B08
:1024A0009F4F0E94B519FC018081D3018D933D019E
:1024B000BFEF4B1A5B0AEECFF701E00FF11F168654
:1024C000C786612C712CDD246C147D0494F4B30157
:1024D000CE018B5B9F4F0E94B519F301E00FF11FF6
:1024E000EE0DFF1DDC018C91808BBFEF6B1A7B0A18
:1024F000EBCFF701EC0DFD1DE00FF11F108A818A73
:10250000612C712C99240C0D1D1D681479048CF418
:10251000B301CE01CF960E94B519F301E00FF11F70
:10252000EE0DFF1DDC018C91828BBFEF6B1A7B0AD5
:10253000ECCF69EC71E0CE01C9960E94A71A8E011A
:102540000F5A1F4F4AE0B801C5010E940F32F8012F
:1025500001900020E9F73197AF01401B510BB80102
:10256000CE01C9960E94C719CE01C9960E94CA22FF
:1025700083E992E00E947A188701C8018E199F09A9
:102580008A159B0564F4F80161918F0183E992E05B
:102590000E94331883E992E00E947A18EECF0E94DD
:1025A000B922809113048F5F80931304CE01C996E2
:1025B0000E94A21ACE01CF960E94A21ACE018B5B76
:1025C0009F4F0E94A21ACE01855B9F4F0E94A21AC4
:1025D0000FB6F8943EBE0FBE2DBE95C0A901415066
:1025E0005109F801E40FF51F9081F801E20FF31F84
:1025F00090839A01452B91F789AF89AD8C32C9F050
:1026000089AD8B3619F48AAD8E3619F162E070E02F
:1026100080E090E00E94251983E992E00E94FC1777
:10262000892BA9F083E992E00E94DA1725E030E0D7
:10263000D5CF8AAD843421F78BAD803509F78CADC9
:102640008934F1F68DAD8B32D9F611E00FC010E070
:102650000DC08BAD8936D1F68CAD8C36B9F68DAD0B
:102660008E36A1F68EAD853589F612E00E945F198F
:10267000C0900F04D0901004E0901104F090120468
:10268000AB01BC014C195D096E097F098091FE0305
:102690009091FF03092E000CAA0BBB0B8417950722
:1026A000A607B70708F4D7C11111D5C12CC00E94E5
:1026B000DA2529C00E945F1900910F0410911004BF
:1026C0002091110430911204DC01CB01801B910B8D
:1026D000A20BB30B803D9740A105B105A0F083E1AB
:1026E00092E00E94CB2580910C04826092E08927C1
:1026F00080930C040E9499230E94B92280911304B4
:102700008F5F8093130480910C0483708330D9F41D
:10271000109209041092080465ED71E0CE01019653
:102720000E94A71ACE0101960E945624CE0101965E
:102730000E94A21A0E94B92206C080910C048370E4
:1027400011F40E94A32980910F01882309F4BFC3CB
:1027500080913B0290913C02A0913D02B0913E02DB
:10276000892B8A2B8B2B79F10E945F1900913B02F8
:1027700010913C0220913D0230913E02DC01CB01E0
:10278000801B910BA20BB30B009101011091020170
:10279000209103013091040180179107A207B3072C
:1027A00090F080910501806390E389278093050173
:1027B00081E00E94442010923B0210923C02109251
:1027C0003D0210923E028FE00E94F52A9A8389838F
:1027D0000E9422268D3308F48EC189819A81883C1B
:1027E00091050CF088C1109200010E945F1960935E
:1027F0001F0270932002809321029093220268EEC0
:1028000073E080E090E00E9425198EE00E94F52A96
:102810009093400280933F0289E00E94F028892B28
:1028200069F080910C0190E0880F991F20913F0280
:10283000309140022817390708F4AAC18091250277
:10284000882309F448C0C0904202D0904302E0902F
:102850004402F090450260910E0170E080E090E04B
:102860000E944B329B01AC01C701B6010E94EC2FC4
:1028700087FD04C0809141028770A1F080910D0115
:10288000682F70E080E090E00E944B329B01AC0129
:10289000C701B6010E9444321816ECF08091410243
:1028A0008770C9F00E945F1900911B0210911C02F1
:1028B00020911D0230911E02DC01CB01801B910B87
:1028C000A20BB30B803C9742A940B10520F0809148
:1028D000050186FF70C10E945F1900911B021091D3
:1028E0001C0220911D0230911E02DC01CB01801BD5
:1028F000910BA20BB30B843F9140A105B10520F0D1
:102900009091050196FD68C181E00E944420DFC2DC
:1029100010920F010E94682068EE73E080E090E062
:102920000E942519F0C981E080930F01F3CF8BA994
:10293000803209F031CB8CA98B3609F02DCB8DA9D3
:102940008E3609F029CB8EA9893609F025CB8FA9BF
:102950008C3609F021CB80910C04826092E08927AB
:1029600080930C0400E050CB01116ECB80910804E1
:102970008F5F8093080490910004891708F466CB58
:1029800080910C04826092E0892780930C045ECBD6
:1029900010E00E945F19C0900F04D0901004E090E6
:1029A0001104F0901204AB01BC014C195D096E09D1
:1029B0007F098091FE039091FF03092E000CAA0B62
:1029C000BB0B84179507A607B707B8F1111135C0DF
:1029D0009ACE22968FAD22978B3609F0D4CC2396CF
:1029E0008FAD23978E3609F0CECC24968FAD2497E9
:1029F000893609F0C8CC25968FAD25978C3409F01F
:102A0000C2CC11E0C6CF22968FAD2297893609F04D
:102A1000C3CC23968FAD23978C3609F0BDCC24967A
:102A20008FAD24978E3609F0B7CC25968FAD2597BC
:102A3000853509F0B1CC12E0ACCF113009F45ECE8F
:102A400083E6809313040E94B922809109048F5F6A
:102A50008093090458CE113099F7CDB6DEB683E9DC
:102A600092E00E94DA178C0183E992E00E94DA1763
:102A7000C8019927EDB7FEB7E81BF90B0FB6F8941C
:102A8000FEBF0FBEEDBF0DB71EB70F5F1F4F780122
:102A90005801A80EB91EEA14FB0471F083E992E014
:102AA0000E94DA17D7018D937D0162E070E080E02B
:102AB00090E00E942519EFCFF8018081803281F4E7
:102AC0008181823069F4828181110AC08381811100
:102AD00007C080910C04826080930C0481E001C0E7
:102AE00083E6809313040E94B9220FB6F894DEBEE9
:102AF0000FBECDBE08CE8FE00E94F52A883C91051E
:102B00000CF083CE0E945F1900913B0210913C02B1
:102B100020913D0230913E02DC01CB01801B910BE4
:102B2000A20BB30B8A3F9105A105B10508F46DCE48
:102B300080910501982F907284FD12C0992391F025
:102B400090E289278061809305010E945F1960935C
:102B50003B0270933C0280933D0290933E0210C072
:102B6000911102C08062EFCF90E389278093050125
:102B700010923B0210923C0210923D0210923E02D3
:102B800081E00E94442064E670E080E090E03BCE6B
:102B90000E945F1960933B0270933C0280933D0258
:102BA00090933E028091050180628093050181E04F
:102BB0000E94442043CE80648093050181E00E94FE
:102BC00044200E945F1960931B0270931C02809343
:102BD0001D0290931E027FCE80E489278093050119
:102BE00093CE4C33510510F00C94390D0C943E0DDE
:102BF0008093700490937104A0937204B093730453
:102C000081E090E016C18091FD03823231F482812F
:102C100093810A97099708F4A5C082819381895707
:102C2000910983359105D0F48091FD038132B0F094
:102C300084819581CA97899788F49F012A5F3F4FC5
:102C4000C12CD12C760143E050E0D9016D917C91EB
:102C50006A5071096930710508F4A3C000917804C5
:102C6000109179046F961FAF0EAF6F970630110564
:102C700014F40C9487098F010A5F1F4FE5ECCE2EE8
:102C8000EDE9DE2EECE1EE2EE1E8FE2EF3E02F2E54
:102C9000312CD8016D917C91F8013497A080B180DE
:102CA00080E090E00E9449322B013C01B50180E0B8
:102CB00090E00E9449324B015C012DEC3CEC4CE46D
:102CC0005FE30E94AA329B01AC01C301B2010E94E2
:102CD000443287FD17C02DEC3CEC4CE45FE3C301AC
:102CE000B2010E94AA329B01AC01C501B4010E944D
:102CF0004432E82F880FFF0BEE27FF0FEE1FFF2750
:102D0000319602C0E0E0F0E0A701960163E971E0CE
:102D100080E091E00E94632E6F01FF0FEE08FF0834
:102D2000C626D726E826F926BFEF2B1A3B0A0E5FE8
:102D30001F4F6F96EEADFFAD6F972E163F0609F051
:102D4000A8CFC0927004D0927104E0927204F09205
:102D5000730480E290E090937504809374048FEF85
:102D60009FEF67C02091FD03CF01820F911D820F5D
:102D7000911DDC0112978D919C910A97099708F09B
:102D80004CCF10927504109274048FEF9FEFDC010A
:102D90008093700490937104A0937204B0937304B1
:102DA00046C0D90112966D917C91139766517109B5
:102DB0006131710588F112966D917C91139766507F
:102DC00071096730710508F049CFCC0CDD1CEE1C91
:102DD000FF1C4E5F5F4F2C5F3F4F4332510509F0A0
:102DE00034CF9F012A5B3F4FD9012D913C912A504E
:102DF00031092930310508F031CF20E130E030933E
:102E0000750420937404C0927004D0927104E0920F
:102E10007204F09273040BC0D701C601880F991F8A
:102E2000AA1FBB1F6C017D016894C0F8D2CF88E057
:102E300090E090936D0480936C040C9404094053CB
:102E4000514002C0415351406BE00C94460D41513A
:102E5000514002C0425151406AE00C94460D435F1C
:102E6000510902C0445F510969E00C94460D445D6C
:102E7000510902C0455D510968E00C94460D465B5E
:102E8000510902C0455B510967E00C94460D475952
:102E9000510902C04859510966E00C94460D485743
:102EA000510902C04957510965E00C94460D4A5535
:102EB000510902C04B55510964E00C94460D4B5327
:102EC000510902C04C53510963E00C94460DA7967A
:102ED000EEADFFADA7970FB6F894FEBF0FBEEDBFE6
:102EE000CA59DF4F0FB6F894DEBF0FBECDBFDF91DA
:102EF000CF911F910F91FF90EF90DF90CF90BF90F7
:102F0000AF909F908F907F906F905F904F903F9089
:102F10002F9008953FB7F89480912D0290912E0242
:102F2000A0912F02B091300226B5A89B05C02F3F7B
:102F300019F00196A11DB11D3FBFBA2FA92F982FDF
:102F40008827820F911DA11DB11DBC01CD0142E05A
:102F5000660F771F881F991F4A95D1F70895CF9262
:102F6000DF92EF92FF920F931F93CF93DF936C0149
:102F70007A018B01C0E0D0E0CE15DF0589F0D801E1
:102F80006D918D01D601ED91FC910190F081E02DC4
:102F9000C6010995892B11F47E0102C02196ECCF60
:102FA000C701DF91CF911F910F91FF90EF90DF90BC
:102FB000CF900895FC01918D828D981761F0828DDC
:102FC000DF01A80FB11D5D968C91928D9F5F9F735D
:102FD000928F90E008958FEF9FEF0895FC01918DFF
:102FE000828D981731F0828DE80FF11D858D90E06C
:102FF00008958FEF9FEF0895FC01918D228D892F09
:1030000090E0805C9F4F821B91098F7399270895F0
:1030100083E992E00E94FC1721E0892B09F420E06B
:10302000822F0895FC01848DDF01A80FB11DA35AE2
:10303000BF4F2C91848D90E001968F739927848FD8
:10304000A689B7892C93A089B1898C9180648C93CF
:10305000938D848D981306C00288F389E02D8081BA
:103060008F7D80830895EF92FF920F931F93CF93EC
:10307000DF93EC0181E0888F9B8D8C8D981305C0C8
:10308000E889F989808185FD24C0F62E0B8D10E03A
:103090000F5F1F4F0F731127E02E8C8DE8120CC0AD
:1030A0000FB607FCFACFE889F989808185FFF5CF53
:1030B000CE010E941218F1CF8B8DFE01E80FF11D99
:1030C000E35AFF4FF0820B8FEA89FB89808180628F
:1030D00007C0EE89FF896083E889F989808180646F
:1030E000808381E090E0DF91CF911F910F91FF905D
:1030F000EF900895CF93DF93EC01888D8823C9F07A
:10310000EA89FB89808185FD05C0A889B9898C91F0
:1031100086FD0FC00FB607FCF5CF808185FFF2CF8B
:10312000A889B9898C9185FFEDCFCE010E94121834
:10313000E7CFDF91CF91089580E090E0892B29F0CF
:103140000E94081881110C94000008950E94E83133
:103150000F931F93CF93DF93EC01888199810097A0
:1031600029F02A813B812617370788F48B016F5F8E
:103170007F4F0E941E31009761F0998388831B83E3
:103180000A832C813D81232B11F4FC01108281E004
:1031900001C080E0DF91CF911F910F9108950F93AF
:1031A0001F93CF93DF9300D000D000D0CDB7DEB710
:1031B00020EE260F2036E0F58C01262F30E020523D
:1031C000310985E0829FB001839F700D1124675DF6
:1031D0007C4F45E050E0CE0101960E9406321E82EF
:1031E0008BB1837F88608BB9FE013196CE01079643
:1031F00021912EBD00000DB407FEFDCF2EB5E817BE
:10320000F907B1F75A9AF80184818A5F843510F47E
:1032100084830BC064E50E94732EF801948385813A
:103220008F5F66E00E94732E958381E090E002C07C
:1032300080E090E026960FB6F894DEBF0FBECDBFBB
:10324000DF91CF911F910F9108958F929F92AF922E
:10325000BF92CF92DF92EF92FF926B017C010E94AE
:103260008A174B015C01C114D104E104F104F1F0AF
:103270000E948A17DC01CB0188199909AA09BB09A8
:10328000883E9340A105B10570F321E0C21AD10830
:10329000E108F10888EE880E83E0981EA11CB11C9D
:1032A000C114D104E104F10419F7DDCFFF90EF90D0
:1032B000DF90CF90BF90AF909F908F9008952FB7E1
:1032C000F8946091290270912A0280912B029091CA
:1032D0002C022FBF08951F920F920FB60F92112448
:1032E0002F933F938F939F93AF93BF938091290226
:1032F00090912A02A0912B02B0912C0230912802C9
:1033000023E0230F2D3720F40196A11DB11D05C028
:1033100026E8230F0296A11DB11D20932802809359
:10332000290290932A02A0932B02B0932C02809141
:103330002D0290912E02A0912F02B09130020196A1
:10334000A11DB11D80932D0290932E02A0932F02F8
:10335000B0933002BF91AF919F918F913F912F9188
:103360000F900FBE0F901F901895FC01248135819E
:103370006217730720F480819181009729F41092DD
:10338000260286E292E00895860F971F0895EF9235
:10339000FF920F931F93CF93DF93FC01248135811C
:1033A0006115710511F480E019C041155105A9F0AE
:1033B0007B01EC018A01020F131FB8010E94A818BB
:1033C000882389F3288139818C819D81B701820FFF
:1033D000931F0E94FF311D830C8381E0DF91CF9109
:1033E0001F910F91FF90EF900895EF92FF920F932E
:1033F0001F93CF93DF93CDB7DEB727970FB6F8941F
:10340000DEBF0FBECDBF7C01CB014AE08E010F5F56
:103410001F4FB8010E941A32F80101900020E9F70D
:103420003197AF01401B510BB801C7010E94C7196A
:1034300027960FB6F894DEBF0FBECDBFDF91CF91B8
:103440001F910F91FF90EF900895EF92FF920F93CD
:103450001F93CF93DF93CDB7DEB728970FB6F894BD
:10346000DEBF0FBECDBF7C01CB014AE08E010F5FF6
:103470001F4FB8010E940F32F80101900020E9F7B8
:103480003197AF01401B510BB801C7010E94C7190A
:1034900028960FB6F894DEBF0FBECDBFDF91CF9157
:1034A0001F910F91FF90EF900895CF93DF9300D07D
:1034B000CDB7DEB769831A8241E050E0BE016F5F8D
:1034C0007F4F0E94C7190F900F90DF91CF91089501
:1034D0006115710551F0FB0101900020E9F731976A
:1034E000AF01461B570B0C94C71980E00895EF926B
:1034F000FF920F931F93CF93DF93EC017B018A011F
:10350000BA010E94A8182881398181110DC02115A6
:10351000310519F0C9010E948630198218821D8276
:103520001C821B821A8206C01D830C83B701C9014D
:103530000E94FF31CE01DF91CF911F910F91FF903B
:10354000EF900895FC01808191810C948630FC01FC
:103550001182108213821282158214826115710504
:1035600051F0FB0101900020E9F73197AF01461BB4
:10357000570B0C94771A0895EF92FF920F931F93B5
:10358000CF93DF938C017B01C0E0D0E0F701EC0F1B
:10359000FD1F6491662361F0D801ED91FC910190CB
:1035A000F081E02DC8010995892B11F02196EECF0D
:1035B000CE01DF91CF911F910F91FF90EF90089571
:1035C0006115710579F0FB0101900020E9F7319751
:1035D000AF01461B570BDC01ED91FC910280F3819A
:1035E000E02D099480E090E008954F925F926F92F1
:1035F0007F92EF92FF920F931F93CF93DF93CDB7FC
:10360000DEB7A1970FB6F894DEBF0FBECDBF7C0129
:10361000FA01CB0119A2223008F42AE08E010F5DD5
:103620001F4F422E512C612C712CBF01A30192011E
:103630000E94C033F901CA01015011096A3014F423
:10364000605D01C0695CD8016C93232B242B252B72
:1036500061F7B801C7010E94E01AA1960FB6F8946D
:10366000DEBF0FBECDBFDF91CF911F910F91FF90B5
:10367000EF907F906F905F904F9008951F920F9200
:103680000FB60F9211242F933F934F935F936F9335
:103690007F938F939F93AF93BF93EF93FF9383E9B0
:1036A00092E00E941218FF91EF91BF91AF919F910C
:1036B0008F917F916F915F914F913F912F910F90DB
:1036C0000FBE0F901F9018951F920F920FB60F927A
:1036D00011242F938F939F93EF93FF93E091A30275
:1036E000F091A4028081E091A902F091AA0282FDEA
:1036F00012C090818091AC028F5F8F732091AD02D8
:10370000821751F0E091AC02F0E0ED56FD4F958F3D
:103710008093AC0201C08081FF91EF919F918F91C6
:103720002F910F900FBE0F901F901895DC01E0E0D5
:10373000615038F08D91E827F0E0E75DFD4FE491AE
:10374000F7CF8E2F0895AF92BF92CF92DF92EF9274
:10375000FF920F931F93CF93DF931F92CDB7DEB7E6
:103760005C01E62ED72EFC01858581115DC0C50167
:103770000E94261D811105C0F50113861586148649
:103780006BC040E060EFC5010E94E41C01E0F12C39
:10379000C12C11E0C5010E94751C682FC501698309
:1037A0000E94751C6981613019F48130B9F433C00D
:1037B0004F2D50E068131BC0F5018385181730F4B6
:1037C000E40FF51F8381802349F402C0181731F0FC
:1037D00060E0193058F4F501148708C0F501EF0DC9
:1037E000F11D8381802B838361E009C0C12EF50127
:1037F000E40FF51F9381802F809589238383C50172
:103800000E94B51C1F5F000F11F4F39401E0F7E074
:10381000FF1508F0BFCF113438F0F501C386C11091
:1038200015C081E0858712C0F501138615861486C0
:1038300080E0D5011396EE2DFD2D9501255F3F4FBC
:103840009D919193A217B307D9F706C0F501838123
:10385000882351F381E0EDCF0F90DF91CF911F913D
:103860000F91FF90EF90DF90CF90BF90AF900895B1
:10387000CF92DF92EF92FF920F931F93CF93DF933C
:103880001F92CDB7DEB78C01F62E40E065E5798357
:103890000E94E41CCF2C7981D72E760188E0E80EB7
:1038A000F11CF60161916F0140E0C8010E94E41C27
:1038B000CE14DF04B1F70F90DF91CF911F910F91DC
:1038C000FF90EF90DF90CF90089591E09093710278
:1038D0008093920210922F0410922E0482E394E0BF
:1038E0000E94F62681E00C94CA21FC01908101809F
:1038F000F281E02DF8948181892B81832281892FA7
:10390000809528232283A7E0B0E01197F1F7218169
:1039100082238183A3E2B0E01197F1F7808178944C
:10392000EFECF0E03197F1F7982381E009F480E0C3
:103930000895EF92FF920F931F93CF93DF937C0133
:1039400008E010E0C0E0D1E0C7010E94751C8111C1
:10395000CD2BDD0F01501109B9F78C2FDF91CF91DD
:103960001F910F91FF90EF900895FC0190810180CD
:10397000F281E02D892F809560FF12C0F89422819A
:10398000822382838181892B8183A3E2B0E0119716
:10399000F1F78281982B9283789487ED90E011C0A3
:1039A000F8942281822382838181892B8183AFEFE6
:1039B000B0E01197F1F78281982B928378948FE091
:1039C00090E00197F1F70895CF92DF92EF92FF9286
:1039D0000F931F93CF93DF931F92CDB7DEB76C0188
:1039E000E62E08E010E0FF24F39461E08F2D8E2195
:1039F00009F460E0C60149830E94B51CFF0C015028
:103A0000110949810115110581F7411115C0F8947B
:103A1000D6011196ED91FC91129791818C91809530
:103A2000892381831196ED91FC91129792818C915B
:103A300080958923828378940F90DF91CF911F9195
:103A40000F91FF90EF90DF90CF900895FC0190814F
:103A50000180F281E02DF8948181292F2095822325
:103A6000818378948DE743E050E0815021F1DA01C1
:103A70001197F1F730813923C1F3F89482818223C1
:103A800082838181892B81837894ABE7B7E011979A
:103A9000F1F7F894818128232183A3E1B1E0119704
:103AA000F1F78081982381E009F080E07894E3E6E3
:103AB000F6E03197F1F708951F920F920FB60F922B
:103AC00011242F933F934F935F936F937F938F9323
:103AD0009F93AF93BF93EF93FF93809130030E9426
:103AE000F02820913303309134032F5F3F4F309300
:103AF0003403209333039091FD03943618F095E03E
:103B000090933103909131039330B9F018F49230CF
:103B100039F057C0943059F1953009F44CC051C078
:103B200081114FC020913303309134032436310585
:103B300008F443C01092FD031CC0813009F041C05D
:103B4000E091FD0391E09E0F9093FD03F0E0209142
:103B5000330330913403EE0FFF1FE05DFC4F3683DB
:103B60002583109234031092330394E021C0811115
:103B700017C0E091FD0391E09E0F9093FD03F0E0EC
:103B80002091330330913403EE0FFF1FE05DFC4FB3
:103B900036832583109234031092330393E008C0D8
:103BA00020913303309134032536310550F095E0F0
:103BB0009093310306C0811104C010923403109217
:103BC000330390913203992329F0811102C02D9A79
:103BD00001C02D98FF91EF91BF91AF919F918F916F
:103BE0007F916F915F914F913F912F910F900FBEF9
:103BF0000F901F901895CF92DF92EF92FF92CF9384
:103C0000DF93EC01072E000C880B990B0E944B32BE
:103C10006B017C0120E030E040E45FE30E94AA32C7
:103C200020E030E048E452E40E94442F0E94B62F86
:103C3000C617D707D4F020E030E040EA5FE3C701C1
:103C4000B6010E94AA3220E030E048E452E40E942B
:103C5000442F20E030E040E85FE30E94D82E0E942D
:103C6000B62F21E06C177D070CF420E0822F90E046
:103C7000DF91CF91FF90EF90DF90CF9008950C945B
:103C800070330C946833CF92DF92EF92FF920F93D0
:103C90001F93CF93DF93CDB7DEB729970FB6F89474
:103CA000DEBF0FBECDBFF82EC62EDD24D394D0923A
:103CB000710288E68093920210922F0410922E04D3
:103CC00060E082E394E0288749870E94F6261AE0A4
:103CD0008E2D612F0E94732E692F30E1839F600D1E
:103CE000112482E394E00E94F626802F612F0E9427
:103CF000732E692F30E1839F600D112482E394E0DD
:103D00000E94F6262885822F612F0E94732E692F2C
:103D100020E1829F600D112482E394E00E94F62648
:103D20008C81612F0E94732E692F30E1839F600D7B
:103D3000112482E394E00E94F6264985842F612FA6
:103D40000E94732E692F20E1829F600D112482E36F
:103D500094E00E94F6268C2D612F0E94732E692F0D
:103D600030E1839F600D112482E394E00E94F626E7
:103D700080E38F0D612F0E94732E692F20E1829FB7
:103D8000600D112482E394E00E94F62681E00E94F7
:103D9000CA21882321F01092480280E003C0D0920B
:103DA000480281E029960FB6F894DEBF0FBECDBF62
:103DB000DF91CF911F910F91FF90EF90DF90CF9007
:103DC00008952F923F924F925F926F927F928F92BF
:103DD0009F92AF92BF92CF92DF92EF92FF920F939A
:103DE0001F93CF93DF93CDB7DEB7A1970FB6F894AB
:103DF000DEBF0FBECDBFC09049029E012F5F3F4F77
:103E00007901C1FCC7C08091460290E3D92ED80E3B
:103E10008090420290904302A0904402B0904502EC
:103E2000C501B4010E94BD2F062F60910F012091A2
:103E3000250240E1249F900111248091240250E248
:103E4000859FC00111241091230270E4179FA001E7
:103E50001124309141023770962F990F990F990FC5
:103E6000932B9227292B2827822B8427182F142B5A
:103E700030903F02209040020E945F1940903B0228
:103E800050903C0260903D0270903E029B01AC015C
:103E900024193509460957098091010190910201C1
:103EA000A0910301B0910401BC01CD01621B730B11
:103EB000840B950B20EF30E040E050E00E94C033CF
:103EC00029013A0185E1F70111928A95E9F781E02C
:103ED000898380913A028A83809139028B83809111
:103EE00038028C83809137028D83809136028E83D5
:103EF000DF820887602F70E080E090E00E944B3204
:103F00009B01AC01C501B4010E94D72E20E030E036
:103F100048EC52E40E94AA320E94BD2F69871A879A
:103F2000809105018B87809135028C8780913402C6
:103F30008D87809133028E87809132028F878091A6
:103F40003102888BC98A2A8A3B8A80910A048C8B29
:103F5000C301B2012AEF30E040E050E00E94C033DC
:103F60002D8B69ED71E0CE0146960E94A71A1D8E39
:103F70001C8E1F8E1E8E19A218A26E897F89611554
:103F8000710531F04A8D5B8DCE014C960E94771AF7
:103F900045E13DC08BE0F90111928A95E9F782E095
:103FA0008983809110018A8380910E018B83809197
:103FB0000D018C8380910C018D8380910B018E8388
:103FC00080910A018F83809109018887809108017F
:103FD0008987809107018A87809106018B8769ED27
:103FE00071E0CE0146960E94A71A1D8E1C8E1F8E70
:103FF0001E8E19A218A26E897F896115710531F094
:104000004A8D5B8DCE014C960E94771A4BE0B7012A
:10401000CE014C960E94DD22CE014C960E94A21A3F
:1040200010924902CE0146960E94A21AA1960FB69E
:10403000F894DEBF0FBECDBFDF91CF911F910F91DE
:10404000FF90EF90DF90CF90BF90AF909F908F90B8
:104050007F906F905F904F903F902F900895CF93F7
:10406000DF93EC010A9730F465E575E088E294E0AF
:104070000E94BC1AAE01DD0F660B770B88E294E05C
:10408000DF91CF910C9486258230B9F030F48130E5
:10409000C9F46091050188E313C0833049F084308E
:1040A00089F46091050188E30E94651C60E007C007
:1040B0006091050188E30E94651C6091410289E3DB
:1040C0000E94651C6091050182E290E00C943F1E05
:1040D00090910F0180910501992389F0806A809366
:1040E00005010E945F1960933B0270933C0280932C
:1040F0003D0290933E0281E00E94442010C0806BFC
:1041000090EB89278093050184E00E94442010925F
:104110003B0210923C0210923D0210923E026091CE
:104120000F018AE090E00E943F1E68EE73E080E09D
:1041300090E00C9425191F93CF93DF9300D000D00B
:1041400000D0CDB7DEB7E0910D04F0910E04808170
:10415000882309F415C163817481CE0101960E9400
:10416000A71A8D819E81892B49F065ED71E08981C7
:104170009A810E94F63111E0892B09F010E0CE01FE
:1041800001960E94A21A112309F4F5C020910D0492
:1041900030910E04D90115964D915C911697FA0154
:1041A000808190E08830910508F0E5C08C5C9F4FDD
:1041B000D90112961C91FC010C94932E123009F037
:1041C000DAC0DA0111968C918130B9F028F0823092
:1041D00011F1833079F14CC080910F01882319F0DF
:1041E00010920F0103C081E080930F010E946820AC
:1041F00060910F018AE090E02BC0909125029923F5
:1042000019F01092250202C08093250260912502C8
:1042100088E090E01DC080912302882319F010925D
:10422000230203C081E0809323026091230280E295
:1042300090E00EC080912402882319F0109224028D
:1042400003C081E080932402609124028AE190E01F
:104250000E943F1E0DC0123009F08DC090910501E3
:10426000FA01818189278093050181E00E94442021
:1042700081E066C0113009F07EC061C0123009F0E3
:104280007AC0FA01A181A0931001F0EFAF9FD00195
:1042900011242AEF30E00E94992E6093010170935F
:1042A00002018093030190930401DA0111966C914D
:1042B00086E090E042C0133009F05DC0FA016181F0
:1042C00060930E01828180930D018CE090E00E944A
:1042D0003F1E60910D018EE090E049C0123009F060
:1042E0004AC0DA0111966C9160930C0180E190E074
:1042F00024C0153009F03FC0FA01618160930B01C1
:10430000828180930A018381809309018481809353
:10431000080182E190E00E943F1E60910A0184E161
:1043200090E00E943F1E6091090186E190E00E94AA
:104330003F1E6091080188E190E00E943F1E83E0EB
:104340008093490218C01330B1F4DA0111966C91D0
:1043500011976093070112968C91809306018CE16E
:1043600090E00E943F1E609106018EE190E00E9465
:104370003F1E10934902E0910D04F0910E0410824B
:1043800026960FB6F894DEBF0FBECDBFDF91CF915A
:104390001F910895382F20912E049091920221327E
:1043A00008F049C0809170028111FCCF42E0409337
:1043B000700230936F023FEF30936E0210926D02E5
:1043C00020936C02A2E7B2E04CE452E0FA013E2FE7
:1043D000341B321718F43D913193F9CF10924B02F0
:1043E00020914B02990F922B90934B0290914A028D
:1043F000913061F410924A0290914B029093BB006D
:104400009091BC0093FDF8CF95EC01C095EE909390
:10441000BC00909170029230E1F390916E029F3F48
:1044200079F080916E02803241F080916E0280338B
:1044300031F084E005C081E003C082E001C083E088
:1044400010922F0410922E04109271020895EF9290
:10445000FF920F931F93CF93DF937C018B01C5E1F4
:10446000D4E08D819E810E94261DB7018D819E81A1
:104470000E94381C40E06EEB8D819E810E94E41CFE
:104480008D819E810E94991CF80180838D819E817F
:104490000E94991CF80181838D819E810E94991C44
:1044A000F80182838D819E810E94991CF80183838B
:1044B0008D819E810E94991CF80184838D819E814B
:1044C0000E94991CF80185838D819E810E94991C10
:1044D000F80186838D819E810E94991CF801878353
:1044E0008D819E810E94991CF80180878D819E811B
:1044F000DF91CF911F910F91FF90EF900C94261DAB
:10450000CF93DF93CDB7DEB729970FB6F894DEBF10
:104510000FBECDBFFC012081203109F1BE016F5FCC
:104520007F4F0E94272268E0CE0101960E94961BD1
:104530009985891310C08D818F3359F018F48F310C
:1045400071F009C08F3519F08F3739F004C08BE056
:1045500007C08AE005C080E003C08CE001C089E0AC
:1045600029960FB6F894DEBF0FBECDBFDF91CF9175
:1045700008950E945F1960930F0470931004809354
:10458000110490931204089564EE71E083E992E0BF
:104590000C94E01ACF93DF93FC0144815581608134
:1045A000718183E992E00E94AF17EC010E94C4225E
:1045B0008C0F9D1FDF91CF9108954F925F926F9264
:1045C0007F928F929F92AF92BF92CF92DF92EF92A3
:1045D000FF920F931F93CF93DF93CDB7DEB72C9746
:1045E0000FB6F894DEBF0FBECDBF4C01562EA72EDE
:1045F000CDB6DEB6FC0184818B879B859C5F940FD2
:104600009A87BA84EB2CF12C8DB79EB78E199F092F
:104610000FB6F8949EBF0FBE8DBF0DB71EB70F5FCC
:104620001F4F80E390E0A0E090E0A0E08F839887A8
:10463000A9878F81EDB7FEB781838885F8018183D3
:10464000898582838B858383412C642D70E0F401FE
:10465000848195816817790788F43B01F4E06F0E37
:10466000711CC4014C870E94B519FC018081F801BE
:10467000E60DF71D808343944C85E7CFA52DBA2D19
:1046800080E090E050E0841795075CF4EB85F0E063
:104690003496E80FF91F2D91E00FF11F208301964A
:1046A000F2CFBA94BA94F801B18269EC71E0CE010C
:1046B00001960E94A71AB701CE0101960E94F51932
:1046C000CE0101960E94CA22B12C8B2D90E08E154E
:1046D0009F0550F4F801E80FF91F608183E992E02B
:1046E0000E943318B394F1CF0E94B92282E08093E4
:1046F0001304CE0101960E94A21A0FB6F894DEBEF2
:104700000FBECDBE2C960FB6F894DEBF0FBECDBF48
:10471000DF91CF911F910F91FF90EF90DF90CF909D
:10472000BF90AF909F908F907F906F905F904F90D1
:10473000089583E992E00E94FC17892B59F083E9E0
:1047400092E00E94DA1762E070E080E090E00E9460
:104750002519EFCF08958F929F92AF92BF92CF927B
:10476000DF92EF92FF920F931F93CF93DF93611528
:10477000710519F420E030E07EC07B018C01C0E0BF
:10478000D0E00E945F1960939B0270939C0280931B
:104790009D0290939E02E0919302F0919402068014
:1047A000F781E02D83E992E0099597FD0BC0F801B0
:1047B000EC0FFD1F2081022E000C330B8217930794
:1047C00009F552C00E945F1980909B0290909C0254
:1047D000A0909D02B0909E02DC01CB01881999093E
:1047E000AA09BB098090970290909802A090990224
:1047F000B0909A0288159905AA05BB0560F22FEFC3
:104800003FEF39C0209721F420E030E0E901B9CF33
:104810009E01A90141505109F801E40FF51F608183
:10482000062E000C770B86179707D1F4411551051A
:1048300069F3D801FE01E41BF50BE00FF11F60E006
:1048400070E0CD90D190CD1429F064177507F1F286
:104850009A01DFCF6F5F7F4F6417750790F3F5CF35
:1048600041155105A9F7D0CF9E012F5F3F4F2E155F
:104870003F0561F67FCF81E0232B09F080E0DF91D7
:10488000CF911F910F91FF90EF90DF90CF90BF904D
:10489000AF909F908F900895FC0101900020E9F760
:1048A0003197BF01681B790B0C94AB232F923F9279
:1048B0004F925F926F927F928F929F92AF92BF9230
:1048C000CF92DF92EF92FF920F931F93CF93DF93DC
:1048D00000D000D000D0CDB7DEB73C01ADB6BEB63B
:1048E000FC01848195812C0155244201F6E08F0E54
:1048F000911C720127E0E20EF11CEDB7FEB7EE1934
:10490000FF090FB6F894FEBF0FBEEDBF0DB71EB77F
:104910000F5F1F4F92E891839CE0F801928392E22F
:104920009383148285832DB63EB6F7E02F0E311C9B
:10493000C12CD12CC414D5046CF4B601C3010E945F
:10494000B519FC018081F10181931F01FFEFCF1A9E
:10495000DF0AF0CF8EEF8E0DF8018183E80DF91D8F
:10496000108269EC71E0CE0101960E94A71AB7018E
:10497000CE0101960E94F519CE0101960E94CA222D
:1049800083E992E00E947A18D12C8D2D90E08E154B
:104990009F0550F4F801E80FF91F608183E992E068
:1049A0000E943318D394F1CF0E94B92283E992E098
:1049B0000E94FC17892BE9F40E945F1900910F04F3
:1049C000109110042091110430911204AB01BC012C
:1049D000401B510B620B730B8091FE039091FF0300
:1049E000092E000CAA0BBB0B481759076A077B0757
:1049F000E8F28DED91E00E944C24882359F1109249
:104A0000080462E370E080E090E00E94251987EEE0
:104A100091E00E944C24882329F183E992E00E94CE
:104A2000DA1783E992E00E94DA1783E992E00E94A4
:104A3000DA1783E992E00E94DA1783E992E00E9494
:104A4000DA1783E992E00E94DA1783E992E00E9484
:104A5000DA1708C080910C04826092E08927809365
:104A60000C0408C064E670E080E090E00E94251924
:104A70000E949923CE0101960E94A21A0FB6F894C3
:104A8000BEBE0FBEADBE0FB6F894BEBE0FBEADBE6D
:104A900026960FB6F894DEBF0FBECDBFDF91CF9143
:104AA0001F910F91FF90EF90DF90CF90BF90AF904C
:104AB0009F908F907F906F905F904F903F902F903E
:104AC00008959BB1937F892B8BB96EBD00000DB407
:104AD00007FEFDCF8EB55A9A0895CF93DF93C8EFA6
:104AE000D1E060E088E00E9461252197D1F760E87D
:104AF00080E00E94612560E480E00E9461251092C0
:104B00002C0410922D04DF91CF910895CF92DF9263
:104B1000EF92FF920F931F93CF93DF9377FF21C004
:104B20006A017B01EC01E881F9810190F081E02DBF
:104B30006DE209958C0144275527BA014C195D098E
:104B40006E097F092AE0CE010E94F51A800F911F9D
:104B5000DF91CF911F910F91FF90EF90DF90CF9059
:104B600008952AE0DF91CF911F910F91FF90EF9070
:104B7000DF90CF900C94F51ACF93DF93BC0183E9BB
:104B800092E00E94E01AEC010E94C4228C0F9D1F4B
:104B9000DF91CF910895CF93DF93BC0183E992E039
:104BA0000E94BC1AEC010E94C4228C0F9D1FDF9151
:104BB000CF9108950F931F93CF93DF9300D000D030
:104BC00000D0CDB7DEB769EC71E0CE0101960E944E
:104BD000A71A62E070E0CE0101960E94251ACE016C
:104BE00001960E94CA220EEF13E0F80160817181E4
:104BF000072E000C880B990B0E94251960EE83E9A3
:104C000092E00E94331860E083E992E00E9433183A
:104C1000F8018685826092E0892786870E94B92202
:104C200084E6F801858BCE0101960E94A21A269691
:104C30000FB6F894DEBF0FBECDBFDF91CF911F91AD
:104C40000F9108955C98549A61E070E080E090E0E4
:104C50000E942519549880E090E04C9905C0019677
:104C600080382EE39207C9F75C98549A0895482F2C
:104C700050E060E070E02AE088E294E00C94F51ADD
:104C8000E3E9F2E0A089B18982E08C93A485B5853F
:104C90001C92A685B7858FEC8C93108EA489B5895C
:104CA00086E08C93A289B3898C9180618C93A289D0
:104CB000B3898C9188608C93A289B3898C91806828
:104CC0008C930288F389E02D80818F7D8083089505
:104CD00085ED8093BC008091BC0084FDFCCF1092D8
:104CE0007002089540919C04262F30E0240F311D5E
:104CF00021323105DCF4209170022430C9F4FC012A
:104D000080E090E0861758F430919C042191DC01FA
:104D1000A658BB4FA30FB11D2C930196F3CF8091E2
:104D20009C04680F60939C0480E0089581E00895DE
:104D300082E008950895E091310480913004E817ED
:104D400030F4F0E0E45BFB4F808190E008958FEF5A
:104D50009FEF08959091310480913004981750F49A
:104D6000E92FF0E0E45BFB4F208130E09F5F909300
:104D7000310402C02FEF3FEFC90108958091300444
:104D800090E020913104821B91090895CF92DF9227
:104D9000EF92FF920F931F93CF93DF937C01262F07
:104DA000972F8A0180917102882391F0C62FD72F07
:104DB0006E01C40ED51ECC15DD0571F06991D701C9
:104DC000ED91FC910190F081E02DC7010995F3CFA1
:104DD000642F822F0E947226C801DF91CF911F910C
:104DE0000F91FF90EF90DF90CF900895CF93DF93D6
:104DF0001F92CDB7DEB76983209171022223D1F0D3
:104E000020912E04203240F021E030E0FC01338379
:104E1000228380E090E015C080912F04E82FF0E01D
:104E2000EE58FD4F998190838F5F80932F0480937C
:104E30002E0405C061E0CE0101960E94722681E039
:104E400090E00F90DF91CF910895833081F028F4A6
:104E5000813099F08230A1F008958730A9F0883030
:104E6000B9F08430D1F4809180008F7D03C08091AF
:104E700080008F7780938000089584B58F7702C07B
:104E800084B58F7D84BD08958091B0008F7703C075
:104E90008091B0008F7D8093B00008958F929F9293
:104EA000AF92BF92CF92DF92EF92FF920F931F9338
:104EB000CF93DF93FC01C081D181209178043091A0
:104EC0007904C217D3070CF04BC09E01220F331F89
:104ED000E0917604F0917704E20FF31F80809180D7
:104EE000C170DD27F1E0CF27209719F404E610E028
:104EF00002C00CE91FEF7A015B016C01040F151F62
:104F0000B801C4010E94FB1D892B99F40E0D1F1DD1
:104F1000B801C4010E94FB1D892B71F4B8016E0D0C
:104F20007F1DC4010E94FB1D892BE9F023E030E0C6
:104F300005C021E030E002C022E030E0F5018081D0
:104F400091810196821793073CF0F501118210823E
:104F5000F60180819181019691838083CE0105C005
:104F600081E090E002C08FEF9FEFDF91CF911F9122
:104F70000F91FF90EF90DF90CF90BF90AF909F90F8
:104F80008F9008951F920F920FB60F9211242F93B6
:104F90003F934F935F936F937F938F939F93AF93C1
:104FA000BF93EF93FF938091B900887F803609F417
:104FB0009CC068F5883209F45BC090F4803109F434
:104FC00054C038F4882309F4F6C0883009F44DC081
:104FD000F6C0883109F44CC0803209F45DC0EFC0DE
:104FE000803409F468C048F4803309F455C088332C
:104FF00009F0E5C080936E02D8C0803509F44FC037
:10500000883509F45DC0883409F0D9C0D6C0883924
:1050100009F4C7C0A8F4883709F467C038F48836A3
:1050200009F463C0803709F460C0C9C0883809F446
:10503000B8C0803909F45FC0803809F0C0C05BC0D7
:10504000803B09F486C038F4803A09F466C0883A97
:1050500009F47FC0B4C0803C09F4A7C0883C09F4BF
:10506000A4C0883B09F48AC0AAC080914B0210C03A
:1050700090916D0280916C02981770F5E0916D022D
:1050800081E08E0F80936D02F0E0E45BFD4F808144
:105090008093BB0085EC86C080936E028EC0E09149
:1050A0006D0281E08E0F80936D028091BB00F0E075
:1050B000E45BFD4F808390916D0280916C026EC025
:1050C000E0916D0281E08E0F80936D028091BB00B4
:1050D000F0E0E45BFD4F808380916F0281116DC031
:1050E00081E080934A0284EA61C083E08093700289
:1050F0001092C004CFCF8091C004803208F051C01C
:10510000E091C00481E08E0F8093C0048091BB00C9
:10511000F0E0E056FB4F8083BDCF85EC8093BC0070
:10512000109270028091C004803230F4E091C0048B
:10513000F0E0E056FB4F10826091C00470E0E09117
:105140009E04F0919F0480EA94E009951092C004B7
:1051500036C084E08093700210929D0410929C04EB
:10516000E0919A04F0919B04099580919C0481112F
:1051700005C081E080939C0410927A04E0919D0424
:1051800081E08E0F80939D04F0E0E658FB4F808114
:105190008093BB0090919D0480919C04981708F423
:1051A00079CF85E88093BC000AC085EC8093BC0071
:1051B0001092700204C010926E020E946826FF9145
:1051C000EF91BF91AF919F918F917F916F915F917F
:1051D0004F913F912F910F900FBE0F901F901895F8
:1051E000CF93DF93282F30E0F901E356FA4F8491F3
:1051F000F901EB58FA4FD491F901EF59FA4FC491E4
:10520000CC2391F081110E942527EC2FF0E0EE0FC6
:10521000FF1FE95AFA4FA591B491EC91ED2381E07B
:1052200090E021F480E002C080E090E0DF91CF9137
:1052300008951F93CF93DF93282F30E0F901E356B1
:10524000FA4F8491F901EB58FA4FD491F901EF59D3
:10525000FA4FC491CC23C9F0162F81110E94252743
:10526000EC2FF0E0EE0FFF1FED56FA4FA591B49131
:105270008FB7F894111105C09C91ED2FE095E923AB
:1052800002C0EC91ED2BEC938FBFDF91CF911F917A
:1052900008951092700281E080936F0210924A028A
:1052A00061E082E10E94192961E083E10E941929ED
:1052B000E9EBF0E080818E7F808380818D7F808329
:1052C00088E48093B80085E48093BC000895CF9370
:1052D000DF9390E0FC01EB58FA4F2491FC01EF5969
:1052E000FA4F8491882361F190E0880F991FFC01A7
:1052F000E757FA4FC591D491FC01ED56FA4FA591AD
:10530000B491611109C09FB7F894888120958223D8
:105310008883EC912E230BC0623061F49FB7F89420
:105320003881822F809583238883EC912E2B2C93B8
:105330009FBF06C08FB7F894E8812E2B28838FBFBC
:10534000DF91CF910895CF92DF92EF92FF920F936A
:105350001F93CF93DF93CDB7DEB727970FB6F8949F
:10536000DEBF0FBECDBF6DEE71E0CE0101960E9493
:10537000A71A8AED95E00E94CB2564E670E080E0F4
:1053800090E00E94251981ED95E08F8361E070E047
:10539000CE0107960E94AB23811102C010E019C014
:1053A00000E011E0E02EF12C8D819E81E816F906D7
:1053B00080F483E992E00E94DA17D82EB701CE017B
:1053C00001960E94B519FC0180818D1110E00F5FDC
:1053D000E9CFCE0101960E94A21A1111F2C061E03C
:1053E0008AE00E94672961E08AE00E9419291092F0
:1053F00009040E94402688E893E1A0E0B0E0809391
:10540000970290939802A0939902B0939A0260E059
:105410008AE00E94192983E992E00E947A18E091BB
:10542000A502F091A60280818F7E8083E091A50283
:10543000F091A6028081877F8083E091A502F091A0
:10544000A60280818F778083E091A502F091A60269
:1054500080818F7D80838091AD028093AC0264E671
:1054600070E080E090E00E94251961E08AE00E94EF
:10547000192968EE73E080E090E00E9425190E94EF
:1054800040268EEC95E00E94CB250E94B92283E94C
:1054900092E00E94FC17892BA9F40E945F190091E9
:1054A0000F04109110042091110430911204DC01BA
:1054B000CB01801B910BA20BB30B803D9740A10544
:1054C000B10528F388EF91E00E944C24882309F469
:1054D0007DC080E880930C0489EC95E00E94CB2588
:1054E00064E670E080E090E00E94251905E010E09D
:1054F00081EB95E00E94CB256BEF71E0CE01019628
:105500000E94A71A6DEE71E0CE0101960E94681A02
:1055100064E971E0CE0101960E94681A66E072E0CB
:10552000CE0101960E94681A66E971E0CE010196EB
:105530000E94681ACE0101960E94CA220E94B922D6
:1055400083E992E00E94FC17892BA9F40E945F195D
:10555000C0900F04D0901004E0901104F090120459
:10556000DC01CB018C199D09AE09BF09803D974034
:10557000A105B10528F364E670E080E090E00E94A8
:10558000251988EF91E00E944C24F82ECE01019657
:105590000E94A21AFF2031F080910C048160809358
:1055A0000C0404C00150110909F0A2CF64EF71E0AE
:1055B00080E090E00E9425198DEB95E00E94CB25BC
:1055C00005C080910C04816080930C0427960FB66F
:1055D000F894DEBF0FBECDBFDF91CF911F910F9129
:1055E000FF90EF90DF90CF9008958E3008F08E50AE
:1055F0008770806480937C0080917A0080648093BF
:105600007A0080917A0086FDFCCF8091780020910D
:10561000790090E0922B08950895CF93DF93CDB752
:10562000DEB761970FB6F894DEBF0FBECDBF78949A
:1056300084B5826084BD84B5816084BD85B5826097
:1056400085BD85B5816085BD80916E008160809348
:105650006E001092810080918100826080938100B1
:1056600080918100816080938100809180008160C1
:10567000809380008091B10084608093B10080911C
:10568000B00081608093B00080917A008460809344
:105690007A0080917A00826080937A0080917A000B
:1056A000816080937A0080917A00806880937A008C
:1056B0001092C100109231041092300410922F0405
:1056C00010922E040E94492983E00E94442060E049
:1056D00086E00E94672960E087E00E94672960E019
:1056E00088E00E94672960E089E00E9467298BB109
:1056F0008C608BB98AB18C608AB961E081E10E94CB
:10570000672961E081E10E9419291FB7F89480910F
:105710002702811127C0EBE6F5E08491EFE7F5E081
:105720009491E82FF0E0EE0FFF1FE757FA4FA59195
:10573000B491EC91E92321F461E08AE00E941929F7
:1057400061E08AE00E9467298CB580618CBD8CB5D0
:1057500080648CBD61E08DE00E94672961E08BE090
:105760000E946729809127028F5F809327021FBFC5
:1057700060E081E10E94192961E070E080E090E042
:105780000E94251961E081E10E94192961E280E00F
:105790000E9461256CEB80E00E94612564E080E05E
:1057A0000E94612562E180E00E94612560E280E064
:1057B0000E9461256CE080E00E9461250E946D25B9
:1057C0000E946D2566E475E088E294E00E94BC1AB0
:1057D0000E94A3290E946D256EE275E088E294E0A4
:1057E0000E94BC1A80E090E00E94411E11E08F3FB1
:1057F00009F010E082E090E00E94411E833209F03F
:1058000010E084E090E00E94411E883409F074C0EA
:10581000112309F471C069E075E088E294E00E9408
:10582000BC1A86E090E00E94411E8093100190EF28
:10583000899FD00111242AEF30E00E94992E6093B5
:10584000010170930201809303019093040188E0A9
:1058500090E00E94411E809325028AE090E00E9421
:10586000411E80930F018CE090E00E94411E8093C6
:105870000E018EE090E00E94411E80930D0180E1B8
:1058800090E00E94411E80930C0182E190E00E9412
:10589000411E80930B0184E190E00E94411E8093A1
:1058A0000A0186E190E00E94411E8093090188E18F
:1058B00090E00E94411E809308018AE190E00E94DE
:1058C000411E809324028CE190E00E94411E80934F
:1058D00007018EE190E00E94411E8093060180E264
:1058E00090E00E94411E8093230282E290E00E9499
:1058F000411E809305017BC06BE175E088E294E076
:105900000E94BC1A00E010E060E0C8010E943F1E47
:105910000F5F1F4F011584E01807B1F76FEF80E0AC
:1059200090E00E943F1E63E282E090E00E943F1EF2
:1059300068E484E090E00E943F1E6091100186E0E0
:1059400090E00E943F1E6091250288E090E00E9456
:105950003F1E60910F018AE090E00E943F1E60911F
:105960000E018CE090E00E943F1E60910D018EE0E0
:1059700090E00E943F1E60910C0180E190E00E9447
:105980003F1E60910B0182E190E00E943F1E6091FA
:105990000A0184E190E00E943F1E6091090186E1C6
:1059A00090E00E943F1E6091080188E190E00E9413
:1059B0003F1E609124028AE190E00E943F1E6091A8
:1059C00007018CE190E00E943F1E609106018EE18C
:1059D00090E00E943F1E6091230280E290E00E94CE
:1059E0003F1E6091050182E290E00E943F1EE0911F
:1059F0001A04F0911B04138615861486DF011B968A
:105A000033961E92AE17BF07E1F71092190411E00A
:105A1000BE01665F7F4F80911A0490911B040E9423
:105A2000A31B882309F450C067E0CE010A960E94A8
:105A3000961B99898913ECCF80911504811126C09A
:105A400080911A0490911B040E94261DBE01665F7E
:105A50007F4F80911A0490911B040E94381C40E0F3
:105A600064EB80911A0490911B040E94E41C8091C5
:105A70001A0490911B040E94751C082F80911A042F
:105A800090911B040E94261D0023D1F1BE016F5F7F
:105A90007F4FCE010A960E94272200911604CE0164
:105AA0000A960E948022801718F48091160404C080
:105AB000CE010A960E9480228093160480911904D8
:105AC0008F5F80931904A4CFF89482E08093B00094
:105AD0008093B10094E69093B3001092B20080934B
