:100000000C94F3020C941B030C941B030C941B0321
:100010000C941B030C941B030C941B030C94641D85
:100020000C941B030C941B030C941B030C941B03D8
:100030000C941B030C941B030C941B030C941B03C8
:100040000C9473190C941B030C946C1B0C94461B9E
:100050000C941B030C941B030C941B030C941B03A8
:100060000C94CA270C941B03E6203321422146211D
:10007000632176218121AB2141542B434950434CCC
:100080004F53450041542B43495053454E443D0086
:100090004572726F7200525443207265616420652C
:1000A00072726F7200726573657420746865205493
:1000B000696D6500417474656D7074696E67207454
:1000C0006F20002E0054656D703A202020202020E3
:1000D0002020200020202020002F002F00446174C9
:1000E000652028442F4D2F59293A20002020202018
:1000F0002020003A003A0054696D653A2020202003
:1001000020202020200020202053657474696E6711
:10011000730020202020456E64206F662020202060
:10012000002020202020202020202020200020002F
:1001300057616B65204D696E7574653A202000200B
:100140002020202020202020202020002000576177
:100150006B6520686F75723A202020200030004DBA
:10016000696E757465204F66663A20002020003065
:1001700000486F7572204F66663A200020003000FC
:100180004D696E757465204F6E3A20002020200066
:100190003000486F7572204F6E3A200043757272BE
:1001A000656E74204C696768743A00202020202016
:1001B000202020202020004C696768742054726938
:1001C000703A2020200054656D7020436E74726C6C
:1001D0003A2000200030004D696E2054656D702E6D
:1001E0003A2000200030004D61782054656D702E5B
:1001F0003A200020200042757A7A416C6572743A88
:1002000020003000303000436F756E74646F776E7D
:100210003A200041542B434950434C4F5345004131
:10022000544530004154453000005EBCE2613FDD82
:1002300083C29C7E20A3FD1F419DC3217FFCA24061
:100240001E5F01E3BD3E6082DC237D9FC1421CFE38
:10025000A0E1BF5D0380DE3C62BEE0025CDF816343
:100260003D7C22C09E1D43A1FF4618FAA427799B1E
:10027000C584DA3866E5BB5907DB856739BAE40619
:10028000581947A5FB7826C49A653BD987045AB804
:10029000E6A7F91B45C6987A24F8A6441A99C725FB
:1002A0007B3A6486D85B05E7B98CD2306EEDB351EA
:1002B0000F4E10F2AC2F7193CD114FADF3702ECCC9
:1002C00092D38D6F31B2EC0E50AFF1134DCE9072D0
:1002D0002C6D33D18F0C52B0EE326C8ED0530DEFAB
:1002E000B1F0AE4C1291CF2D73CA947628ABF517AE
:1002F000490856B4EA6937D58B5709EBB536688A91
:10030000D495CB2977F4AA4816E9B7550B88D6348B
:100310006A2B7597C94A14F6A8742AC896154BA972
:10032000F7B6E80A54D7896B3500000000000000DA
:100330005F00000007000700147F147F14242A7F49
:100340002A1223130864623649552250000503001F
:1003500000001C2241000041221C0014083E081429
:1003600008083E0808005030000008080808080087
:100370006060000020100804023E5149453E0042E2
:100380007F400042615149462141454B31181412CA
:100390007F1027454545393C4A49493001710905D7
:1003A000033649494936064949291E0036360000B8
:1003B00000563600000814224100141414141400CE
:1003C000412214080201510906324979413E7E1149
:1003D00011117E7F494949363E414141227F4141C9
:1003E000221C7F494949417F090909013E41494988
:1003F0007A7F0808087F00417F41002040413F018B
:100400007F081422417F404040407F020C027F7FE2
:100410000408107F3E4141413E7F090909063E41E3
:1004200051215E7F09192946464949493101017F19
:1004300001013F4040403F1F2040201F3F403840C7
:100440003F63140814630708700807615149454366
:10045000007F41410002040810200041417F000458
:1004600002010204404040404000010204002054C8
:100470005454787F484444383844444420384444F1
:10048000487F3854545418087E0901020C525252C5
:100490003E7F0804047800447D40002040443D0035
:1004A0007F1028440000417F40007C041804787CC1
:1004B0000804047838444444387C1414140808149C
:1004C00014187C7C080404084854545420043F4405
:1004D00040203C4040207C1C2040201C3C403040C0
:1004E0003C44281028440C5050503C4464544C4424
:1004F000000836410000007F00000041360800106F
:1005000008081008784641467820202020204672AE
:100510006F6D2045455046524F4D00202020202031
:1005200046726F6D2044656661756C7473004C6F24
:100530006164696E67202020202020205661726946
:1005400061626C657300436F6E6E656374696E679C
:1005500020455350003000000000002300260029F1
:10056000000404040404040404020202020202035C
:100570000303030303010204081020408001020466
:1005800008102001020408102000000000240027A9
:10059000002A0000000000250028002B00000000B9
:1005A0000800020100000304070000000000000032
:1005B0000041542B43574D4F44453D310041542B8E
:1005C0004349504D55583D30004154453000415449
:1005D000002B43574A41503A220041542B43574A7B
:1005E00041503F008B2D11241FBECFEFD8E0DEBF5E
:1005F000CDBF12E0A0E0B1E0E6EFF7E602C0059063
:100600000D92A631B107D9F724E0A6E1B2E001C00E
:100610001D92A53CB207E1F712E0C3EFD2E004C09F
:100620002197FE010E949B2EC23FD107C9F70E946D
:10063000152B0C94F9330C9400002F923F924F929B
:100640005F926F927F928F929F92AF92BF92CF9262
:10065000DF92EF92FF920F931F93CF93DF93CDB76B
:10066000DEB7C656D1090FB6F894DEBF0FBECDBFB8
:100670000DB71EB7A7961FAF0EAFA79780910001C9
:10068000882309F4C1C10E946719009116021091D4
:1006900017022091180230911902DC01CB01801B56
:1006A000910BA20BB30B883E9340A105B10508F452
:1006B000E3C0E0911A04F0911B041386158614869A
:1006C000DF011B96CF0103961E92A817B907E1F729
:1006D000BE016F5C7F4FCF010E94AB1B882329F0C6
:1006E00067E0CE01C1960E949E1BBE016F5F7F4FE7
:1006F000CE01C1960E942F2268E0CE0101960E9491
:100700009E1B9985891389C08A8190E0982F88273C
:100710002981822B29A92232B9F12832A9F120316D
:1007200009F081C01885BC0175956795072E000CEE
:10073000880B990B0E94533220E030E040E85EE3E2
:100740000E94DF2E6B017C01812F90E02F81821BA4
:100750009109BC01990F880B990B0E9453324B01F0
:100760005C01612F70E080E090E00E9451329B01BB
:10077000AC01C501B4010E944C2F9B01AC01C70123
:10078000B6010E94E02E36C02D812F33B1F1A0F4C6
:100790002F3109F048C0BC01F3E075956795FA95D3
:1007A000E1F7072E000C880B990B0E94533220E0D2
:1007B00030E040E05FE31CC02F3569F02F3799F53A
:1007C000BC01990F880B990B0E94533220E030E056
:1007D00040E85DE30DC0BC0175956795072E000CE0
:1007E000880B990B0E94533220E030E040E05EE33A
:1007F0000E94B2326B017C0116C0BC0175956795F1
:1008000075956795072E000C880B990B0E94533243
:1008100020E030E040E85EE3EBCFC12CD12C6EEF5E
:10082000E62E62ECF62EC0924202D0924302E09293
:100830004402F092450280911A0490911B040E9498
:100840002E1D40E06CEC80911A0490911B040E94D4
:10085000EC1C4091150464E480911A0490911B04EF
:100860000E94EC1C0E946719609316027093170295
:1008700080931802909319026D961FAE6D976C9637
:100880001FAE6C97E090380211E01093710288E679
:100890008093920210922F0410922E0460E082E363
:1008A00094E00E94FE2681E00E94D221882319F064
:1008B0001092480227C6109348028091700281115D
:1008C000FCCF81E08093700280936F029FEF909342
:1008D0006E0210926D0296E090936C0280934B0230
:1008E00080914B02806D80934B0280914A0281304F
:1008F00061F410924A0280914B028093BB00809178
:10090000BC0083FDF8CF85EC01C085EE8093BC0070
:10091000809170028130E1F380916D02873018F48C
:1009200080916D0201C087E0ACE4B2E02CE434E0D9
:10093000F9019E2F921B981718F49D919193F9CF6E
:100940001092310480933004873008F4DBC582E3D1
:1009500094E00E94B226C82E8695869586958E7064
:10096000D82EDD0CDD0C8D0D9C2D9F70D82ED90E50
:1009700082E394E00E94B226982F92959F708F7028
:10098000B82E2AE0929FB00C112482E394E00E94DA
:10099000B226282F2695269526952670F22EFF0C36
:1009A000FF0CF20E982F9F70F90E82E394E00E94E4
:1009B000B22682E394E00E94B226982F82958F702F
:1009C0009F70192F3AE0839F100D112482E394E069
:1009D0000E94B226982F82958F709F70092F4AE04F
:1009E000849F000D112482E394E00E94B226982F88
:1009F0009F70925E282F22952F708AE0289F900D7D
:100A00001124C7FEC6C47EC50E94671900911F024B
:100A1000109120022091210230912202DC01CB01B1
:100A2000801B910BA20BB30B883210EA9107A10532
:100A3000B10520F081E0809300017DC1893F2AE269
:100A40009207A105B10508F06BC020911A0221118F
:100A500067C00E94752567E072E088E294E00E941A
:100A6000C41A109110011A3018F464E072E004C046
:100A7000143630F462E072E088E294E00E94C41A16
:100A8000812F0E943F2666EF71E088E294E00E9489
:100A9000C41A809125020E943F2663EF71E088E22C
:100AA00094E00E94C41A67EE71E088E294E00E942C
:100AB000C41A80910E018A3030F465EE71E088E24C
:100AC00094E00E94C41A80910E010E943F2663EEBA
:100AD00071E088E294E00E94C41A67ED71E088E258
:100AE00094E00E94C41A80910D018A3030F465EDC3
:100AF00071E088E294E00E94C41A80910D010E9486
:100B00003F2663ED71E088E294E00E94C41A66EC2F
:100B100071E088E294E00E94C41A80912402B4C07B
:100B20008C019D01085F1A422109310901311742E8
:100B300021053105B0F520911A02213091F50E946E
:100B4000752567EB71E088E294E00E94C41A409139
:100B50000C0150E0440F551F052E000C660B770B5F
:100B600088E294E00E948E256BEA71E088E294E0CE
:100B70000E94C41A6CE971E088E294E00E94C41AF1
:100B80008EE00E94FD2AAC01990F660B770B88E27C
:100B900094E00E948E2580911A028F5F80931A0242
:100BA000CAC08C019D01085012452109310901314B
:100BB00017422105310508F06AC020911A0222303F
:100BC00009F065C00E94752562E971E088E294E051
:100BD0000E94C41A80910B018A3030F460E971E000
:100BE00088E294E00E94C41A80910B010E943F2683
:100BF0006CE871E088E294E00E94C41A60E871E059
:100C000088E294E00E94C41A80910A018A3030F48C
:100C10006EE771E088E294E00E94C41A80910A01B4
:100C20000E943F266CE771E088E294E00E94C41ABB
:100C300061E771E088E294E00E94C41A80910901A2
:100C40008A3030F46FE671E088E294E00E94C41AC2
:100C5000809109010E943F266CE671E088E294E0F1
:100C60000E94C41A6FE571E088E294E00E94C41A01
:100C7000809108018A3030F46DE571E088E294E0FB
:100C80000E94C41A809108010E943F2684CF885197
:100C90009947A109B10981319742A105B10508F031
:100CA0004AC080911A02833009F045C00E94752520
:100CB0006EE471E088E294E00E94C41A809107011A
:100CC0000E943F26809107018A3030F46CE471E085
:100CD00088E294E00E94C41A6FE371E088E294E035
:100CE0000E94C41A60E371E088E294E00E94C41A92
:100CF00088E0809306010E943F26809107018A3098
:100D000030F46EE271E088E294E00E94C41A61E27D
:100D100071E088E294E00E94C41A62E171E088E226
:100D200094E00E94C41A66E071E088E294E00E94B8
:100D3000C41A10921A0285E393E09093770480938B
:100D400076048091FD0390E0909379048093780479
:100D500080913103853009F0FAC280913703909178
:100D60003803885891098D35910588F48091FD03E9
:100D7000843041F48091390390913A0380974797EA
:100D800008F4F3C18091FD03843408F0AEC680916D
:100D9000FD038A3108F450C08091350390913603E9
:100DA000843F914080F410927504109274048FEF88
:100DB0009FEFDC018093700490937104A093720400
:100DC000B093730457C0809137039091380385978F
:100DD0004B9790F5EBE3F3E082E090E040E050E0E9
:100DE000BA012091FD0330E0DC011196A217B30790
:100DF00054F4DF0112972D913C912750310927308F
:100E0000310508F4B3C601979595879590937504BD
:100E1000809374040C972CF410927504109274044F
:100E20000BC04093700450937104609372047093EC
:100E3000730482E090E0B2C18091FD038A3108F42E
:100E400049C080913503909136038032934008F475
:100E5000AACF8091370390913803C697869708F4FC
:100E6000A1C638C04093700450937104609372041B
:100E70007093730489E090E091C120813181255203
:100E800031092B31310508F09DC6440F551F661FEF
:100E9000771F4160029634962091FD0330E0DC011B
:100EA0001196A217B3074CF4DF0112972D913C91D4
:100EB0002C5031092B30310500F30197959587951A
:100EC00090937504809374040C9764F610927504E3
:100ED000109274048091FD03823208F44CC080911A
:100EE0003703909138030697079708F044C0EBE367
:100EF000F3E082E090E040E050E0BA018C010F5F47
:100F00001F4F2091FD0330E002171307DCF4DF01CF
:100F100012972D913C9111972E51310927313105AE
:100F200008F05DC6440F551F661F771F4160208182
:100F300031813496235031092530310510F4029661
:100F4000DDCFC8010197959587959093750480939F
:100F5000740440972CF410927504109274040BC022
:100F600040937004509371046093720470937304FF
:100F70008AE090E013C18091FD038D3048F48091A8
:100F8000780490917904181619060CF483C08FC068
:100F900081E090E09AAB89AB1A82198249E753E06D
:100FA000BE016F5F7F4FCE01C1960E945627892BED
:100FB00021F080E090E0DC0167C049E753E0BE012A
:100FC0006F5F7F4FCE01C1960E945627019789F728
:100FD00049E753E0BE016F5F7F4FCE01C1960E948B
:100FE0005627892B31F700E010E0C12CD12C760177
:100FF0008091FD0390E029A93AA92817390774F5D3
:1010000049E753E0BE016F5F7F4FCE01C1960E945A
:1010100056275C0149E753E0BE016F5F7F4FCE0169
:10102000C1960E94562721E0A216B10451F4892BE3
:1010300009F0BFCFCC0CDD1CEE1CFF1C6894C0F87F
:101040000AC0AB2809F0B5CF019709F0B2CFCC0C9C
:10105000DD1CEE1CFF1C0F5F1F4FCACF10937504E1
:1010600000937404C0927004D0927104E0927204F0
:10107000F092730483E090E090936D0480936C048D
:1010800081E090E0A0E0B0E0892B8A2B8B2B09F067
:10109000D6C075CF81E090E09AAB89ABE091760441
:1010A000F09177048281938189974E9720F080E0B8
:1010B00090E0DC014AC082E090E09AAB89AB848189
:1010C00095810B970A9798F783E090E09AAB89ABEC
:1010D0001A8219824CEB51E0BE016F5F7F4FCE0147
:1010E000C1960E945627892B11F74CEB51E0BE01A7
:1010F0006F5F7F4FCE01C1960E9456270197B9F6C8
:1011000000E010E0812C912C540129A93AA980918A
:10111000780490917904281739070CF46DC5109361
:101120007504009374048092700490927104A092EC
:101130007204B092730484E090E090936D04809305
:101140006C0481E090E0A0E0B0E0892B8A2B8B2B2F
:1011500009F075C0E0917604F09177048281938163
:10116000C697869700F10C940D1680913B039091E1
:101170003C030997099708F005CE10927504109268
:1011800074048FEF9FEFDC018093700490937104DF
:10119000A0937204B093730481E090E090936D0487
:1011A00080936C044CC0848195814B97459710F0D7
:1011B0000C940D16DF0116967F0126ECE20EF11C51
:1011C00020E030E040E050E060E070E080E090E05F
:1011D0000D911C911197095011090830110510F05B
:1011E0000C940D1612960D911C9113970151110933
:1011F0000D30110508F051C501E00E94A82E2160B4
:101200001496AE15BF0521F7209370043093710436
:10121000409372045093730400E20E94C32E209303
:101220006E0430936F0487E090E090936D04809398
:101230006C0480E390E09093750480937404809133
:101240000F01882309F456C08091700490917104B5
:10125000A0917204B09173048F31904EAE4BB144A3
:1012600081F49091050180E28927809305010E9415
:10127000671960933B0270933C0280933D02909308
:101280003E028091700490917104A0917204B0911B
:1012900073048F32904DAE4BB14481F490910501AF
:1012A00080E18927809305010E94671960933B02C2
:1012B00070933C0280933D0290933E0280917004B3
:1012C00090917104A0917204B09173048F3810E76B
:1012D00091071EEBA10711E4B10709F0ECC490914E
:1012E000050188E08927809305011092240281E09E
:1012F0000E944C208091700490917104A09172041E
:10130000B09173048F399046AE4BB14441F4909143
:101310000F0181E0892780930F010E947020809146
:10132000700490917104A0917204B09173048F3590
:10133000904AAE4BB14431F49091240281E0892768
:101340008093240282E0809331031092FD030E9477
:101350002A2690E067969FAF8EAF679767968EAD0F
:101360009FAD6797CD970CF4CDC48FE00E94FD2A06
:10137000883C91050CF0C6C4109200010E946719C8
:1013800060931F02709320028093210290932202A7
:10139000C9C48091070481111092070480910C0444
:1013A000826022E0822780930C04D0923802DE14FF
:1013B00009F4C1CCF0923A02B0923902109337028C
:1013C00000933602892F90E08E54984F90934702F5
:1013D000809346020E94752567EF70E088E294E0F2
:1013E0000E94C41A80913A0290E00E94372065EF73
:1013F00070E088E294E00E94C41A8091390290E083
:101400000E94372063EF70E088E294E00E94C41AE3
:101410008091380290E00E9437206CEE70E088E204
:1014200094E00E94C41A6DED70E088E294E00E949E
:10143000C41A8091370290E00E9437206BED70E073
:1014400088E294E00E94C41A8091360290E00E94E3
:10145000372069ED70E088E294E00E94C41A409160
:1014600046025091470260E070E02AE088E294E092
:101470000E94FD1A64ED70E088E294E00E94C41AB4
:1014800065EC70E088E294E00E94C41AC0904202C9
:10149000D0904302E0904402F0904502C701B601AB
:1014A0000E94C52F6D966FAF6D976D968FAD6D973E
:1014B000682F70E080E090E00E9453329B01AC0105
:1014C000C701B6010E94DF2E20E030E048EC52E474
:1014D0000E94B2320E94C52F6C966FAF6C976D96CA
:1014E0008FAD6D9790E00E94372063EC70E088E24A
:1014F00094E00E94C41A6C968FAD6C9790E00E94A5
:10150000372019CC80914802882309F4FAC00E9440
:10151000752564EB70E088E294E00E94C41A65EAE5
:1015200070E088E294E00E94C41A8091070481115F
:1015300003C081E080930704DE0111966D0180E312
:10154000FD0111928A95E9F78BE189838091070467
:101550008330D1F128F4813051F0823059F0EBCB57
:10156000843009F44AC0853009F461C0E4CB0E949C
:10157000E2251AC00E946719009103041091040427
:101580002091050430910604DC01CB01801B910BF6
:10159000A20BB30B803D9740A105B10508F4CBCB5E
:1015A00081E591E00E94C425809107048F5F8093BC
:1015B00007040E94671960930304709304048093E6
:1015C000050490930604B7CB0E94671900910304A9
:1015D000109104042091050430910604DC01CB0134
:1015E000801B910BA20BB30B803D9740A105B10569
:1015F00008F4A1CB0E94A123D7CF0E9467190091C4
:101600000304109104042091050430910604DC01C8
:10161000CB01801B910BA20BB30B80319742A1052C
:10162000B10508F488CB809107048F5F67C08DE512
:1016300091E00E94C42560ED77E080E090E00E9498
:101640002D1980E990E06B968FAF6B9761E070E0A9
:10165000CE01865A9F4F0E94B32381116CCB64E860
:1016600070E083E992E00E94C41A40E350E060E039
:1016700070E083E992E00E948E250E94CC2282E8ED
:1016800091E00E9454248823B9F0860150E3F52E9E
:10169000FC0CD8016D918D0183E992E00E943B180A
:1016A00065E070E080E090E00E942D19F012F1CF2B
:1016B00000E010E0F12C10C088E790E00E94D325F4
:1016C0003ACB0F30110521F10F5F1F4F64E670E038
:1016D00080E090E00E942D1983E992E00E940418B6
:1016E000892BB1F4EECF0E946719609303047093C5
:1016F0000404809305049093060483E08093070418
:101700001ACB66E970E088E294E00E94C41A13CB19
:1017100083E992E00E94E2178A3321F0F394BBE35D
:10172000FB12DACF65E070E080E090E00E942D19B6
:10173000E12CF12C83E992E00E9404181816190696
:101740008CF583E992E00E94E217E1E3EE16F104E2
:1017500024F4F601EE0DFF1D808365E070E080E06B
:1017600090E00E942D19FFEFEF1AFF0A20E3E21626
:10177000F10404F783E992E00E940418892BD1F662
:1017800083E992E00E940418892BA1F60F3011051D
:1017900089F20F5F1F4F64E670E080E090E00E94E6
:1017A0002D19EECF89A590E0982F88272AA5822BA6
:1017B000A0E0B0E0DC01992788274BA550E0542F2A
:1017C00044272CA5422B60E070E0842B952BA62BA0
:1017D000B72B6C017D0130E8C31A3EE7D30A3AEA21
:1017E000E30A33E8F30A81E591E00E94C4258CE323
:1017F000482E512C612C712CC701B601A301920116
:101800000E94C833A5966CAF7DAF8EAF9FAFA597F2
:1018100090E1892E9EE0992EA12CB12CC701B60132
:10182000A50194010E94C833A30192010E94C8330C
:10183000A1962CAF3DAF4EAF5FAFA1976E963FAC78
:101840006E9720E8422E21E5522E66246394712C77
:10185000C701B601A30192010E94C833A5019401FA
:101860000E94C83349015A01B701A601A5960CADE3
:101870001DAD2EAD3FADA597401B510B620B730BF9
:101880002CE36F96AEADBFAD6F972A9FC0012B9F23
:10189000900D1124092E000CAA0BBB0B481B590BF1
:1018A0006A0B7B0B20E13EE0829EC001839E900D7F
:1018B000929E900D1124092E000CAA0BBB0B8A01DD
:1018C0009B01081B190B2A0B3B0BC901B801A30193
:1018D00092010E94C83389019A01EDE6F1E0C80146
:1018E000BF010E94872ECB018E9FB0018F9F700D8C
:1018F0009E9F700D1124061B170B9C013695279592
:1019000036952795A801421B530B22E0280D28315C
:1019100020F02AEE280D4F5F5F4F8E54984FA2960D
:10192000EFACA297E3941CE3E1120EC06E963FACBD
:101930006E973394311207C02F5FE12C312C283180
:1019400019F420E001C0E12C4F3431E0530790F04E
:10195000BC0163707727672B49F44F34A1E05A0725
:1019600011F40C942A174F54514002C04E54514068
:101970006CE0B2C04133B1E05B0770F0BC01637052
:101980007727672B11F00C9427174233E1E05E07AD
:1019900010F00C942A1712C04231F1E05F0790F06A
:1019A000BC0163707727672B11F00C942F1743311C
:1019B00001E0500710F00C94321714C04231B1E02E
:1019C0005B07A8F7443F510580F0BC01637077279F
:1019D000672B11F00C943717453F510510F00C940C
:1019E0003A1713C0443F5105B8F7453D510580F003
:1019F000BC0163707727672B11F00C943F17463DAD
:101A0000510510F00C94421713C0453D5105B8F72D
:101A1000463B510580F0BC0163707727672B11F0BE
:101A20000C944717473B510510F00C944A1713C00C
:101A3000463B5105B8F74839510580F0BC01637049
:101A40007727672B11F00C944F174939510510F087
:101A50000C94521713C048395105B8F7493751054E
:101A600080F0BC0163707727672B11F00C945A1734
:101A70004A37510510F00C94571714C049375105D7
:101A8000B8F74B35510588F0BC0163707727672B99
:101A900011F00C945F174C35510510F00C9462173F
:101AA0000C9406164B355105B0F74C33510560F0D8
:101AB000BC0163707727672B11F00C9467174D33C7
:101AC000510510F00C946A174032510520F04F5127
:101AD000510962E001C061E0032D0E944B1E882382
:101AE00009F401CE1092070426C980913903909120
:101AF0003A03825491098E9708F049C920E030E0FA
:101B000080E090E0DC01F901E55CFC4F408151810F
:101B1000495051094930510508F039C9F901E35CD0
:101B2000FC4F408151814651510941315105C0F06E
:101B300040815181465051094730510508F027C96D
:101B4000880F991FAA1FBB1F2C5F3F4F20383105FC
:101B5000D1F620E230E0309375042093740414CB66
:101B6000880F991FAA1FBB1F8160EECF2081318192
:101B7000235131092F30310540F4440F551F661FA2
:101B8000771F4160029634962CC9208131812A50FA
:101B900031092930310508F04FC9440F551F661F20
:101BA000771FF0CF8091390390913A03C6978697BB
:101BB00008F090C9EDE3F3E083E090E040E050E00E
:101BC000BA016AC9208131812C5031092A3031058E
:101BD00008F080C9440F551F661F771F5BC92D9100
:101BE0003C912C5031092B30310508F0C4C9440F09
:101BF000551F661F771F9BC94CEB51E0BE016F5FFD
:101C00007F4FCE01C1960E9456276C01033011050B
:101C100071F04CEB51E0BE016F5F7F4FCE01C1967A
:101C20000E9456277C0103301105D9F40DC04CEBFE
:101C300051E0BE016F5F7F4FCE01C1960E945627D3
:101C4000C816D90631F333CA4CEB51E0BE016F5FC1
:101C50007F4FCE01C1960E945627E816F90609F07B
:101C600026CAC114D10459F4EA94EF2809F01FCA16
:101C7000880C991CAA1CBB1C689480F80BC0CA94E1
:101C8000CD2809F014CAEF2809F011CA880C991C54
:101C9000AA1CBB1C0F5F1F4F38CA12960D911C91D6
:101CA0001397045011090530110508F0B6C701E07B
:101CB0000E94A82EA5CA8F3B20E492072EEBA20714
:101CC00021E4B20721F49091050184E00BCB8F331E
:101CD00030EC93073EEBA30731E4B30721F4909176
:101CE000050182E0FFCA8F34904BAE4BB14409F03E
:101CF000FECA9091050181E0892780930501109229
:101D00002302F5CA67968EAD9FAD6797CD970CF409
:101D100014C680910F01882309F40FC610920F0199
:101D20000E94702068EE73E080E090E00E942D1920
:101D30009091070180913A02981314C09091060186
:101D40008091390298130EC080913802813051F48D
:101D500080930F018091050180688093050181E0E7
:101D60000E944C2080912302882341F190913A02F5
:101D700080910B0198130DC02091390280910A01C6
:101D8000281307C08091050180FD03C08160809306
:101D900005018091090198130EC09091390280913C
:101DA0000801981308C09091050190FF04C081E0DC
:101DB00089278093050181E00E944C2080912402B4
:101DC000882309F46BC0C0904202D0904302E09097
:101DD0004402F090450220E030E040EC51E4C701BD
:101DE000B6010E944C3287FF05C0809105018260D8
:101DF0008093050120E030E04CEB51E4C701B601CF
:101E00000E944C3287FF05C0809105018460809359
:101E1000050120E030E048EB51E4C701B6010E9423
:101E20004C3287FF05C080910501886080930501D1
:101E300020E030E04CEC51E4C701B6010E94F42FE1
:101E400018163CF480910501826092E08927809306
:101E5000050120E030E040ED51E4C701B6010E94E9
:101E6000F42F18163CF480910501846094E08927D2
:101E70008093050120E030E044ED51E4C701B60154
:101E80000E94F42F18163CF480910501886098E0B8
:101E900089278093050181E00E944C2086E00E9402
:101EA000F82820914102892B11F02E7F01C021607A
:101EB0002093410287E00E94F82820914102892B5B
:101EC00011F02D7F01C022602093410288E00E9422
:101ED000F82820914102892B11F02B7F01C024604A
:101EE0002093410289E00E94F82820914102892B29
:101EF00011F4277F15C080913802809335028091BC
:101F000039028093340280913A02809333028091A7
:101F1000370280933202809136028093310228602A
:101F20002093410290910C048091410291FF02C0E4
:101F3000806101C08F7E8093410280910F018823D0
:101F400019F082E00E944C2080910704811110C496
:101F500010910C0411FF7FC180911304813069F04E
:101F6000823009F08BC07E0101E3E00EF11C87E0B6
:101F7000D7011D928A95E9F72AC00E94E91E7EC00A
:101F800026E030E0A90141505109F701E40FF51FA7
:101F90009081F701E20FF31F90839A01452B91F78F
:101FA00089AB89A9843521F189A98B3419F48AA9CF
:101FB0008F3479F189A9833721F48AA9893609F404
:101FC000CBC462E070E080E090E00E942D1983E9CC
:101FD00092E00E940418892B09F4D9C483E992E0A5
:101FE0000E94E2178B3261F6809113048F5F44C028
:101FF0008AA98134C9F680910C04836093E0892713
:1020000080930C040E94CC2284E292E00E94D325AB
:10201000BEC48BA9803271F68CA9843459F68DA97F
:102020008E3441F68EA9853429F68FA9833511F6B1
:1020300001E00E946719C0900F04D0901004E09056
:102040001104F0901204AB01BC014C195D096E093A
:102050007F098091FE039091FF03092E000CAA0BCB
:10206000BB0B84179507A607B70708F492C4013085
:1020700029F41092080481E08093130480911304E2
:10208000833009F0E8C066EE71E0CE01CF960E9481
:10209000AF1A66EE71E0CE01C9960E94AF1AE12C2C
:1020A00000E0F12C83E992E00E940418892B09F4E6
:1020B000C5C083E992E00E94E217D82EBCE28B13E0
:1020C000B3C0E4E4FE12B0C0003509F0ADC0F9E4DD
:1020D000EF12AAC066EE71E0CE0101960E94AF1A1F
:1020E00083E992E00E940418892B31F083E992E0A1
:1020F0000E94E2178A33D9F583E992E00E94E21741
:10210000C09709F08CC083E992E00E94E2176A96BA
:102110008FAF6A976A968FAD6A97E0910D04F09140
:102120000E04808383E992E00E94E21783E992E043
:102130000E94E21769968FAF6997E0910D04F091C4
:102140000E0469968FAD699781836A968FAD6A9701
:1021500069969FAD69978250891B68968FAF689783
:1021600068968FAD68978283E12CF12C06C0682FAA
:10217000CE0101960E945D1AB3CF69968FAD699723
:1021800090E0E816F9069CF483E992E00E94E217D9
:10219000682FCE01CF960E945D1A62E070E080E069
:1021A00090E00E942D190FEFE01AF00AE6CFE12C23
:1021B000F12C68968FAD689790E0E816F9069CF4CC
:1021C00083E992E00E94E217682FCE01C9960E942F
:1021D0005D1A62E070E080E090E00E942D192FEF20
:1021E000E21AF20AE6CFE0900D04F0900E0460E0EF
:1021F00070E0CE01CF960E94BD19D70114969C9332
:102200008E931397E0900D04F0900E0460E070E060
:10221000CE01C9960E94BD19F70196838583CE0130
:1022200001960E94AA1A0AC062E070E080E090E085
:102230000E942D19E02E0F2DFD2C34CF0E94A320DB
:1022400082E080931304CE01C9960E94AA1ACE019F
:10225000CF960E94AA1A80910C04811789F083708E
:10226000813071F40E94C12283E68093130480912F
:102270000A0490910B04019690930B0480930A0436
:102280001370113009F06EC20E946719C0900F04DC
:10229000D0901004E0901104F0901204DC01CB0106
:1022A0008C199D09AE09BF0988389341A105B10574
:1022B000A0F080911304853080F010931304809176
:1022C0000C0481FD0AC0909109049A3030F08160BD
:1022D000182710930C040E94AB29809113048330BB
:1022E00009F496C070F48130F1F0823009F020C218
:1022F0008E01015C1F4F86E0D8011D928A95E9F797
:1023000066C0833609F4E8C1843609F4E8C1843034
:1023100009F00EC28E01075C1F4F86E0D8011D92A6
:102320008A95E9F78EC10E94A12364E871E0CE018D
:1023300001960E94AF1A68E971E0CE0101960E94F1
:10234000701A6AEA71E0CE0101960E94701A6EEE70
:102350007CE2CE0101960E942D1ACE0101960E94C8
:10236000D2220E94C122809113048F5F80931304B4
:10237000CE0101960E94AA1ADBC1A9014150510960
:10238000F801E40FF51F9081F801E20FF31F90832D
:102390009A01452B91F78FAF8FAD843531F18FAD19
:1023A000843631F421968FAD2197853609F426C302
:1023B0008FAD8B3631F421968FAD21978E3609F48F
:1023C00037C362E070E080E090E00E942D1983E95D
:1023D00092E00E940418892B09F4EFC283E992E08D
:1023E0000E94E21725E030E0C8CF21968FAD2197FB
:1023F0008134A9F680910C04826092E08927809351
:102400000C040E94CC228FE192E00E94D325D5C219
:102410002DB63EB68EE0EBE1F1E0DE0111960190C3
:102420000D928A95E1F76DEA71E0CE01855B9F4FD1
:102430000E94AF1A63EB71E0CE018B5B9F4F0E944D
:10244000AF1A6CEB71E0CE01CF960E94AF1A619685
:102450000EAD1FAD61972B96CEACDFAC2B972596BA
:102460008EAC9FAC25972C2D200F280D82E1820F7A
:10247000A82EB12CEDB7FEB7EA19FB090FB6F894F8
:10248000FEBF0FBEEDBF8DB79EB701967C01FE016A
:102490003196CE010F96D70131913D93E817F90798
:1024A000D9F7205FD70111962C9311971D960C93A5
:1024B0003701BEE06B0E711C412C512C11274016C8
:1024C00051067CF4B201CE01855B9F4F0E94BD197D
:1024D000FC018081D3018D933D01BFEF4B1A5B0A54
:1024E000EECFF701E00FF11F1686C786612C712C25
:1024F000DD246C147D0494F4B301CE018B5B9F4FFB
:102500000E94BD19F301E00FF11FEE0DFF1DDC016C
:102510008C91808BBFEF6B1A7B0AEBCFF701EC0D30
:10252000FD1DE00FF11F108A818A612C712C992406
:102530000C0D1D1D681479048CF4B301CE01CF96E7
:102540000E94BD19F301E00FF11FEE0DFF1DDC012C
:102550008C91828BBFEF6B1A7B0AECCF69EC71E038
:10256000CE01C9960E94AF1A8E010F5A1F4F4AE042
:10257000B801C5010E941732F80101900020E9F767
:102580003197AF01401B510BB801CE01C9960E9493
:10259000CF19CE01C9960E94D22283E992E00E940F
:1025A00082188701C8018E199F098A159B0564F45A
:1025B000F80161918F0183E992E00E943B1883E961
:1025C00092E00E948218EECF0E94C12280911304F3
:1025D0008F5F80931304CE01C9960E94AA1ACE0180
:1025E000CF960E94AA1ACE018B5B9F4F0E94AA1A17
:1025F000CE01855B9F4F0E94AA1A0FB6F8943EBE8B
:102600000FBE2DBE95C0A90141505109F801E40F3C
:10261000F51F9081F801E20FF31F90839A01452B7B
:1026200091F789AF89AD8C32C9F089AD8B3619F439
:102630008AAD8E3619F162E070E080E090E00E9491
:102640002D1983E992E00E940418892BA9F083E9EF
:1026500092E00E94E21725E030E0D5CF8AAD8434C5
:1026600021F78BAD803509F78CAD8934F1F68DAD4E
:102670008B32D9F611E00FC010E00DC08BAD89365A
:10268000D1F68CAD8C36B9F68DAD8E36A1F68EAD09
:10269000853589F612E00E946719C0900F04D0902A
:1026A0001004E0901104F0901204AB01BC014C192D
:1026B0005D096E097F098091FE039091FF03092E49
:1026C000000CAA0BBB0B84179507A607B70708F4E5
:1026D000D7C11111D5C12CC00E94E22529C00E948A
:1026E000671900910F04109110042091110430918A
:1026F0001204DC01CB01801B910BA20BB30B803DBC
:102700009740A105B105A0F083E192E00E94D32596
:1027100080910C04826092E0892780930C040E94CF
:10272000A1230E94C122809113048F5F8093130420
:1027300080910C0483708330D9F4109209041092B4
:10274000080465ED71E0CE0101960E94AF1ACE013A
:1027500001960E945E24CE0101960E94AA1A0E9450
:10276000C12206C080910C04837011F40E94AB2931
:1027700080910F01882309F4B2C380913B029091AC
:102780003C02A0913D02B0913E02892B8A2B8B2BFB
:1027900079F10E94671900913B0210913C0220914F
:1027A0003D0230913E02DC01CB01801B910BA20B5C
:1027B000B30B0091010110910201209103013091AE
:1027C000040180179107A207B30790F080910501DB
:1027D000806390E389278093050181E00E944C206B
:1027E00010923B0210923C0210923D0210923E0267
:1027F0008FE00E94FD2A9A8389830E942A268D33C6
:1028000008F48EC189819A81883C91050CF088C1B9
:10281000109200010E94671960931F0270932002BA
:10282000809321029093220268EE73E080E090E0B2
:102830000E942D198EE00E94FD2A90934002809301
:102840003F0289E00E94F828892B69F080910C01F1
:1028500090E0880F991F20913F0230914002281785
:10286000390708F4AAC180912502882309F448C0D9
:10287000C0904202D0904302E0904402F0904502A2
:1028800060910E0170E080E090E00E9453329B0165
:10289000AC01C701B6010E94F42F87FD04C08091EE
:1028A00041028770A1F080910D01682F70E080E0F7
:1028B00090E00E9453329B01AC01C701B6010E9417
:1028C0004C321816ECF0809141028770C9F00E94DA
:1028D000671900911B0210911C0220911D0230917A
:1028E0001E02DC01CB01801B910BA20BB30B803CC1
:1028F0009742A940B10520F08091050186FF70C183
:102900000E94671900911B0210911C0220911D0268
:1029100030911E02DC01CB01801B910BA20BB30B8B
:10292000843F9140A105B10520F09091050196FDED
:1029300068C181E00E944C20D2C267968EAD9FADE7
:102940006797CD970CF4F4C980910F018111F0C9FC
:1029500081E080930F01E4C98BA9803209F031CB6B
:102960008CA98B3609F02DCB8DA98E3609F029CB99
:102970008EA9893609F025CB8FA98C3609F021CB99
:1029800080910C04826092E0892780930C0400E01F
:1029900050CB01116ECB809108048F5F80930804A7
:1029A00090910004891708F466CB80910C04826032
:1029B00092E0892780930C045ECB10E00E94671997
:1029C000C0900F04D0901004E0901104F090120415
:1029D000AB01BC014C195D096E097F098091FE03B2
:1029E0009091FF03092E000CAA0BBB0B84179507CF
:1029F000A607B707B8F1111135C09ACE22968FAD50
:102A000022978B3609F0D4CC23968FAD23978E3640
:102A100009F0CECC24968FAD2497893609F0C8CC26
:102A200025968FAD25978C3409F0C2CC11E0C6CF26
:102A300022968FAD2297893609F0C3CC23968FADAD
:102A400023978C3609F0BDCC24968FAD24978E3613
:102A500009F0B7CC25968FAD2597853509F0B1CC17
:102A600012E0ACCF113009F45ECE83E680931304FC
:102A70000E94C122809109048F5F8093090458CE7F
:102A8000113099F7CDB6DEB683E992E00E94E217E5
:102A90008C0183E992E00E94E217C8019927EDB703
:102AA000FEB7E81BF90B0FB6F894FEBF0FBEEDBFE3
:102AB0000DB71EB70F5F1F4F78015801A80EB91E42
:102AC000EA14FB0471F083E992E00E94E217D70157
:102AD0008D937D0162E070E080E090E00E942D190E
:102AE000EFCFF8018081803281F48181823069F4F6
:102AF000828181110AC08381811107C080910C04F9
:102B0000826080930C0481E001C083E6809313040B
:102B10000E94C1220FB6F894DEBE0FBECDBE08CE15
:102B20008FE00E94FD2A883C91050CF083CE0E9424
:102B3000671900913B0210913C0220913D023091B7
:102B40003E02DC01CB01801B910BA20BB30B8A3F31
:102B50009105A105B10508F46DCE80910501982F6E
:102B6000907284FD12C0992391F090E289278061D0
:102B7000809305010E94671960933B0270933C02A9
:102B800080933D0290933E0210C0911102C080627A
:102B9000EFCF90E389278093050110923B021092BA
:102BA0003C0210923D0210923E0281E00E944C20B5
:102BB00064E670E080E090E03BCE0E94671960938D
:102BC0003B0270933C0280933D0290933E028091C1
:102BD000050180628093050181E00E944C2043CE74
:102BE00080648093050181E00E944C200E94671957
:102BF00060931B0270931C0280931D0290931E022F
:102C00007FCE80E489278093050193CE4C33510514
:102C100010F00C945F0D0C94640D8091FD038232D2
:102C200031F4828193810A97099708F4A6C08281C2
:102C300093818957910983359105D0F48091FD03E3
:102C40008132B0F084819581CA97899788F49F0179
:102C50002A5F3F4FC12CD12C760143E050E0D901CF
:102C60006D917C916A5071096930710508F4A4C0B6
:102C700000917804109179046F961FAF0EAF6F9793
:102C80000630110514F40C94A2098F010A5F1F4F3E
:102C9000E5ECCE2EEDE9DE2EECE1EE2EE1E8FE2EA7
:102CA000F3E02F2E312CD8016D917C91F8013497EF
:102CB000A080B18080E090E00E9451322B013C0165
:102CC000B50180E090E00E9451324B015C012DEC97
:102CD0003CEC4CE45FE30E94B2329B01AC01C301C7
:102CE000B2010E944C3287FD17C02DEC3CEC4CE445
:102CF0005FE3C301B2010E94B2329B01AC01C50186
:102D0000B4010E944C32E82F880FFF0BEE27FF0F13
:102D1000EE1FFF27319602C0E0E0F0E0A701960128
:102D200063E971E080E091E00E946B2E6F01FF0F7C
:102D3000EE08FF08C626D726E826F926BFEF2B1A8D
:102D40003B0A0E5F1F4F6F96EEADFFAD6F972E16CD
:102D50003F0609F0A8CFC0927004D0927104E092AF
:102D60007204F092730480E290E090937504809373
:102D700074048FEF9FEF0C94CE082091FD03CF01D8
:102D8000820F911D820F911DDC0112978D919C91F4
:102D90000A97099708F04BCF1092750410927404AB
:102DA0008FEF9FEFDC018093700490937104A093E8
:102DB0007204B093730447C0D90112966D917C914F
:102DC0001397665171096131710568F5D701C60124
:102DD000880F991FAA1FBB1F6C017D016894C0F862
:102DE0004E5F5F4F2C5F3F4F4332510509F037CFA5
:102DF0009F012A5B3F4FD9012D913C912A50310907
:102E00002930310508F034CF20E130E030937504EB
:102E100020937404C0927004D0927104E092720402
:102E2000F092730410C0D90112966D917C911397A2
:102E3000665071096730710508F01ACFCC0CDD1CA3
:102E4000EE1CFF1CCDCF88E090E00C94CE084053E0
:102E5000514002C0415351406BE00C946C0D415104
:102E6000514002C0425151406AE00C946C0D435FE6
:102E7000510902C0445F510969E00C946C0D445D36
:102E8000510902C0455D510968E00C946C0D455B29
:102E9000510902C0465B510967E00C946C0D47591B
:102EA000510902C04859510966E00C946C0D49570C
:102EB000510902C04857510965E00C946C0D4A5500
:102EC000510902C04B55510964E00C946C0D4B53F1
:102ED000510902C04C53510963E00C946C0DA79644
:102EE000EEADFFADA7970FB6F894FEBF0FBEEDBFD6
:102EF000CA59DF4F0FB6F894DEBF0FBECDBFDF91CA
:102F0000CF911F910F91FF90EF90DF90CF90BF90E6
:102F1000AF909F908F907F906F905F904F903F9079
:102F20002F9008953FB7F89480912D0290912E0232
:102F3000A0912F02B091300226B5A89B05C02F3F6B
:102F400019F00196A11DB11D3FBFBA2FA92F982FCF
:102F50008827820F911DA11DB11DBC01CD0142E04A
:102F6000660F771F881F991F4A95D1F70895CF9252
:102F7000DF92EF92FF920F931F93CF93DF936C0139
:102F80007A018B01C0E0D0E0CE15DF0589F0D801D1
:102F90006D918D01D601ED91FC910190F081E02DB4
:102FA000C6010995892B11F47E0102C02196ECCF50
:102FB000C701DF91CF911F910F91FF90EF90DF90AC
:102FC000CF900895FC01918D828D981761F0828DCC
:102FD000DF01A80FB11D5D968C91928D9F5F9F734D
:102FE000928F90E008958FEF9FEF0895FC01918DEF
:102FF000828D981731F0828DE80FF11D858D90E05C
:1030000008958FEF9FEF0895FC01918D228D892FF8
:1030100090E0805C9F4F821B91098F7399270895E0
:1030200083E992E00E94041821E0892B09F420E052
:10303000822F0895FC01848DDF01A80FB11DA35AD2
:10304000BF4F2C91848D90E001968F739927848FC8
:10305000A689B7892C93A089B1898C9180648C93BF
:10306000938D848D981306C00288F389E02D8081AA
:103070008F7D80830895EF92FF920F931F93CF93DC
:10308000DF93EC0181E0888F9B8D8C8D981305C0B8
:10309000E889F989808185FD24C0F62E0B8D10E02A
:1030A0000F5F1F4F0F731127E02E8C8DE8120CC09D
:1030B0000FB607FCFACFE889F989808185FFF5CF43
:1030C000CE010E941A18F1CF8B8DFE01E80FF11D81
:1030D000E35AFF4FF0820B8FEA89FB89808180627F
:1030E00007C0EE89FF896083E889F989808180645F
:1030F000808381E090E0DF91CF911F910F91FF904D
:10310000EF900895CF93DF93EC01888D8823C9F069
:10311000EA89FB89808185FD05C0A889B9898C91E0
:1031200086FD0FC00FB607FCF5CF808185FFF2CF7B
:10313000A889B9898C9185FFEDCFCE010E941A181C
:10314000E7CFDF91CF91089580E090E0892B29F0BF
:103150000E94101881110C94000008950E94F03113
:103160000F931F93CF93DF93EC0188819981009790
:1031700029F02A813B812617370788F48B016F5F7E
:103180007F4F0E942631009761F0998388831B83CB
:103190000A832C813D81232B11F4FC01108281E0F4
:1031A00001C080E0DF91CF911F910F9108950F939F
:1031B0001F93CF93DF9300D000D000D0CDB7DEB700
:1031C00020EE260F2036E0F58C01262F30E020522D
:1031D000310985E0829FB001839F700D1124675DE6
:1031E0007C4F45E050E0CE0101960E940E321E82D7
:1031F0008BB1837F88608BB9FE013196CE01079633
:1032000021912EBD00000DB407FEFDCF2EB5E817AD
:10321000F907B1F75A9AF80184818A5F843510F46E
:1032200084830BC064E50E947B2EF8019483858122
:103230008F5F66E00E947B2E958381E090E002C064
:1032400080E090E026960FB6F894DEBF0FBECDBFAB
:10325000DF91CF911F910F9108958F929F92AF921E
:10326000BF92CF92DF92EF92FF926B017C010E949E
:1032700092174B015C01C114D104E104F104F1F097
:103280000E949217DC01CB0188199909AA09BB0990
:10329000883E9340A105B10570F321E0C21AD10820
:1032A000E108F10888EE880E83E0981EA11CB11C8D
:1032B000C114D104E104F10419F7DDCFFF90EF90C0
:1032C000DF90CF90BF90AF909F908F9008952FB7D1
:1032D000F8946091290270912A0280912B029091BA
:1032E0002C022FBF08951F920F920FB60F92112438
:1032F0002F933F938F939F93AF93BF938091290216
:1033000090912A02A0912B02B0912C0230912802B8
:1033100023E0230F2D3720F40196A11DB11D05C018
:1033200026E8230F0296A11DB11D20932802809349
:10333000290290932A02A0932B02B0932C02809131
:103340002D0290912E02A0912F02B0913002019691
:10335000A11DB11D80932D0290932E02A0932F02E8
:10336000B0933002BF91AF919F918F913F912F9178
:103370000F900FBE0F901F901895FC01248135818E
:103380006217730720F480819181009729F41092CD
:10339000260286E292E00895860F971F0895EF9225
:1033A000FF920F931F93CF93DF93FC01248135810C
:1033B0006115710511F480E019C041155105A9F09E
:1033C0007B01EC018A01020F131FB8010E94B018A3
:1033D000882389F3288139818C819D81B701820FEF
:1033E000931F0E9407321D830C8381E0DF91CF91F0
:1033F0001F910F91FF90EF900895EF92FF920F931E
:103400001F93CF93DF93CDB7DEB727970FB6F8940E
:10341000DEBF0FBECDBF7C01CB014AE08E010F5F46
:103420001F4FB8010E942232F80101900020E9F7F5
:103430003197AF01401B510BB801C7010E94CF1952
:1034400027960FB6F894DEBF0FBECDBFDF91CF91A8
:103450001F910F91FF90EF900895EF92FF920F93BD
:103460001F93CF93DF93CDB7DEB728970FB6F894AD
:10347000DEBF0FBECDBF7C01CB014AE08E010F5FE6
:103480001F4FB8010E941732F80101900020E9F7A0
:103490003197AF01401B510BB801C7010E94CF19F2
:1034A00028960FB6F894DEBF0FBECDBFDF91CF9147
:1034B0001F910F91FF90EF900895CF93DF9300D06D
:1034C000CDB7DEB769831A8241E050E0BE016F5F7D
:1034D0007F4F0E94CF190F900F90DF91CF910895E9
:1034E0006115710551F0FB0101900020E9F731975A
:1034F000AF01461B570B0C94CF1980E00895EF9253
:10350000FF920F931F93CF93DF93EC017B018A010E
:10351000BA010E94B0182881398181110DC021158E
:10352000310519F0C9010E948E30198218821D825E
:103530001C821B821A8206C01D830C83B701C9013D
:103540000E940732CE01DF91CF911F910F91FF9022
:10355000EF900895FC01808191810C948E30FC01E4
:1035600011821082138212821582148261157105F4
:1035700051F0FB0101900020E9F73197AF01461BA4
:10358000570B0C947F1A0895EF92FF920F931F939D
:10359000CF93DF938C017B01C0E0D0E0F701EC0F0B
:1035A000FD1F6491662361F0D801ED91FC910190BB
:1035B000F081E02DC8010995892B11F02196EECFFD
:1035C000CE01DF91CF911F910F91FF90EF90089561
:1035D0006115710579F0FB0101900020E9F7319741
:1035E000AF01461B570BDC01ED91FC910280F3818A
:1035F000E02D099480E090E008954F925F926F92E1
:103600007F92EF92FF920F931F93CF93DF93CDB7EB
:10361000DEB7A1970FB6F894DEBF0FBECDBF7C0119
:10362000FA01CB0119A2223008F42AE08E010F5DC5
:103630001F4F422E512C612C712CBF01A30192010E
:103640000E94C833F901CA01015011096A3014F40B
:10365000605D01C0695CD8016C93232B242B252B62
:1036600061F7B801C7010E94E81AA1960FB6F89455
:10367000DEBF0FBECDBFDF91CF911F910F91FF90A5
:10368000EF907F906F905F904F9008951F920F92F0
:103690000FB60F9211242F933F934F935F936F9325
:1036A0007F938F939F93AF93BF93EF93FF9383E9A0
:1036B00092E00E941A18FF91EF91BF91AF919F91F4
:1036C0008F917F916F915F914F913F912F910F90CB
:1036D0000FBE0F901F9018951F920F920FB60F926A
:1036E00011242F938F939F93EF93FF93E091A30265
:1036F000F091A4028081E091A902F091AA0282FDDA
:1037000012C090818091AC028F5F8F732091AD02C7
:10371000821751F0E091AC02F0E0ED56FD4F958F2D
:103720008093AC0201C08081FF91EF919F918F91B6
:103730002F910F900FBE0F901F901895DC01E0E0C5
:10374000615038F08D91E827F0E0E75DFD4FE4919E
:10375000F7CF8E2F0895AF92BF92CF92DF92EF9264
:10376000FF920F931F93CF93DF931F92CDB7DEB7D6
:103770005C01E62ED72EFC01858581115DC0C50157
:103780000E942E1D811105C0F50113861586148631
:103790006BC040E060EFC5010E94EC1C01E0F12C21
:1037A000C12C11E0C5010E947D1C682FC5016983F1
:1037B0000E947D1C6981613019F48130B9F433C0F5
:1037C0004F2D50E068131BC0F5018385181730F4A6
:1037D000E40FF51F8381802349F402C0181731F0EC
:1037E00060E0193058F4F501148708C0F501EF0DB9
:1037F000F11D8381802B838361E009C0C12EF50117
:10380000E40FF51F9381802F809589238383C50161
:103810000E94BD1C1F5F000F11F4F39401E0F7E05C
:10382000FF1508F0BFCF113438F0F501C386C11081
:1038300015C081E0858712C0F501138615861486B0
:1038400080E0D5011396EE2DFD2D9501255F3F4FAC
:103850009D919193A217B307D9F706C0F501838113
:10386000882351F381E0EDCF0F90DF91CF911F912D
:103870000F91FF90EF90DF90CF90BF90AF900895A1
:10388000CF92DF92EF92FF920F931F93CF93DF932C
:103890001F92CDB7DEB78C01F62E40E065E5798347
:1038A0000E94EC1CCF2C7981D72E760188E0E80E9F
:1038B000F11CF60161916F0140E0C8010E94EC1C0F
:1038C000CE14DF04B1F70F90DF91CF911F910F91CC
:1038D000FF90EF90DF90CF90089591E09093710268
:1038E0008093920210922F0410922E0482E394E0AF
:1038F0000E94FE2681E00C94D221FC01908101807F
:10390000F281E02DF8948181892B81832281892F96
:10391000809528232283A7E0B0E01197F1F7218159
:1039200082238183A3E2B0E01197F1F7808178943C
:10393000EFECF0E03197F1F7982381E009F480E0B3
:103940000895EF92FF920F931F93CF93DF937C0123
:1039500008E010E0C0E0D1E0C7010E947D1C8111A9
:10396000CD2BDD0F01501109B9F78C2FDF91CF91CD
:103970001F910F91FF90EF900895FC0190810180BD
:10398000F281E02D892F809560FF12C0F89422818A
:10399000822382838181892B8183A3E2B0E0119706
:1039A000F1F78281982B9283789487ED90E011C093
:1039B000F8942281822382838181892B8183AFEFD6
:1039C000B0E01197F1F78281982B928378948FE081
:1039D00090E00197F1F70895CF92DF92EF92FF9276
:1039E0000F931F93CF93DF931F92CDB7DEB76C0178
:1039F000E62E08E010E0FF24F39461E08F2D8E2185
:103A000009F460E0C60149830E94BD1CFF0C01500F
:103A1000110949810115110581F7411115C0F8946B
:103A2000D6011196ED91FC91129791818C91809520
:103A3000892381831196ED91FC91129792818C914B
:103A400080958923828378940F90DF91CF911F9185
:103A50000F91FF90EF90DF90CF900895FC0190813F
:103A60000180F281E02DF8948181292F2095822315
:103A7000818378948DE743E050E0815021F1DA01B1
:103A80001197F1F730813923C1F3F89482818223B1
:103A900082838181892B81837894ABE7B7E011978A
:103AA000F1F7F894818128232183A3E1B1E01197F4
:103AB000F1F78081982381E009F080E07894E3E6D3
:103AC000F6E03197F1F708951F920F920FB60F921B
:103AD00011242F933F934F935F936F937F938F9313
:103AE0009F93AF93BF93EF93FF93809130030E9416
:103AF000F82820913303309134032F5F3F4F3093E8
:103B00003403209333039091FD03943618F095E02D
:103B100090933103909131039330B9F018F49230BF
:103B200039F057C0943059F1953009F44CC051C068
:103B300081114FC020913303309134032436310575
:103B400008F443C01092FD031CC0813009F041C04D
:103B5000E091FD0391E09E0F9093FD03F0E0209132
:103B6000330330913403EE0FFF1FE05DFC4F3683CB
:103B70002583109234031092330394E021C0811105
:103B800017C0E091FD0391E09E0F9093FD03F0E0DC
:103B90002091330330913403EE0FFF1FE05DFC4FA3
:103BA00036832583109234031092330393E008C0C8
:103BB00020913303309134032536310550F095E0E0
:103BC0009093310306C0811104C010923403109207
:103BD000330390913203992329F0811102C02D9A69
:103BE00001C02D98FF91EF91BF91AF919F918F915F
:103BF0007F916F915F914F913F912F910F900FBEE9
:103C00000F901F901895CF92DF92EF92FF92CF9373
:103C1000DF93EC01072E000C880B990B0E945332A6
:103C20006B017C0120E030E040E45FE30E94B232AF
:103C300020E030E048E452E40E944C2F0E94BE2F66
:103C4000C617D707D4F020E030E040EA5FE3C701B1
:103C5000B6010E94B23220E030E048E452E40E9413
:103C60004C2F20E030E040E85FE30E94E02E0E940D
:103C7000BE2F21E06C177D070CF420E0822F90E02E
:103C8000DF91CF91FF90EF90DF90CF9008950C944B
:103C900078330C947033CF92DF92EF92FF920F93B0
:103CA0001F93CF93DF93CDB7DEB729970FB6F89464
:103CB000DEBF0FBECDBFF82EC62EDD24D394D0922A
:103CC000710288E68093920210922F0410922E04C3
:103CD00060E082E394E0288749870E94FE261AE08C
:103CE0008E2D612F0E947B2E692F30E1839F600D06
:103CF000112482E394E00E94FE26802F612F0E940F
:103D00007B2E692F30E1839F600D112482E394E0C4
:103D10000E94FE262885822F612F0E947B2E692F0C
:103D200020E1829F600D112482E394E00E94FE2630
:103D30008C81612F0E947B2E692F30E1839F600D63
:103D4000112482E394E00E94FE264985842F612F8E
:103D50000E947B2E692F20E1829F600D112482E357
:103D600094E00E94FE268C2D612F0E947B2E692FED
:103D700030E1839F600D112482E394E00E94FE26CF
:103D800080E38F0D612F0E947B2E692F20E1829F9F
:103D9000600D112482E394E00E94FE2681E00E94DF
:103DA000D221882321F01092480280E003C0D092F3
:103DB000480281E029960FB6F894DEBF0FBECDBF52
:103DC000DF91CF911F910F91FF90EF90DF90CF90F7
:103DD00008952F923F924F925F926F927F928F92AF
:103DE0009F92AF92BF92CF92DF92EF92FF920F938A
:103DF0001F93CF93DF93CDB7DEB7A1970FB6F8949B
:103E0000DEBF0FBECDBFC09049029E012F5F3F4F66
:103E10007901C1FCC7C08091460290E3D92ED80E2B
:103E20008090420290904302A0904402B0904502DC
:103E3000C501B4010E94C52F062F60910F0120918A
:103E4000250240E1249F900111248091240250E238
:103E5000859FC00111241091230270E4179FA001D7
:103E60001124309141023770962F990F990F990FB5
:103E7000932B9227292B2827822B8427182F142B4A
:103E800030903F02209040020E94671940903B0210
:103E900050903C0260903D0270903E029B01AC014C
:103EA00024193509460957098091010190910201B1
:103EB000A0910301B0910401BC01CD01621B730B01
:103EC000840B950B20EF30E040E050E00E94C833B7
:103ED00029013A0185E1F70111928A95E9F781E01C
:103EE000898380913A028A83809139028B83809101
:103EF00038028C83809137028D83809136028E83C5
:103F0000DF820887602F70E080E090E00E945332EB
:103F10009B01AC01C501B4010E94DF2E20E030E01E
:103F200048EC52E40E94B2320E94C52F69871A877A
:103F3000809105018B87809135028C8780913402B6
:103F40008D87809133028E87809132028F87809196
:103F50003102888BC98A2A8A3B8A80910A048C8B19
:103F6000C301B2012AEF30E040E050E00E94C833C4
:103F70002D8B69ED71E0CE0146960E94AF1A1D8E21
:103F80001C8E1F8E1E8E19A218A26E897F89611544
:103F9000710531F04A8D5B8DCE014C960E947F1ADF
:103FA00045E13DC08BE0F90111928A95E9F782E085
:103FB0008983809110018A8380910E018B83809187
:103FC0000D018C8380910C018D8380910B018E8378
:103FD00080910A018F83809109018887809108016F
:103FE0008987809107018A87809106018B8769ED17
:103FF00071E0CE0146960E94AF1A1D8E1C8E1F8E58
:104000001E8E19A218A26E897F896115710531F083
:104010004A8D5B8DCE014C960E947F1A4BE0B70112
:10402000CE014C960E94E522CE014C960E94AA1A1F
:1040300010924902CE0146960E94AA1AA1960FB686
:10404000F894DEBF0FBECDBFDF91CF911F910F91CE
:10405000FF90EF90DF90CF90BF90AF909F908F90A8
:104060007F906F905F904F903F902F900895CF93E7
:10407000DF93EC010A9730F465E575E088E294E09F
:104080000E94C41AAE01DD0F660B770B88E294E044
:10409000DF91CF910C948E258230B9F030F48130CD
:1040A000C9F46091050188E313C0833049F084307E
:1040B00089F46091050188E30E946D1C60E007C0EF
:1040C0006091050188E30E946D1C6091410289E3C3
:1040D0000E946D1C6091050182E290E00C94471EE5
:1040E00090910F0180910501992389F0806A809356
:1040F00005010E94671960933B0270933C02809314
:104100003D0290933E0281E00E944C2010C0806BE3
:1041100090EB89278093050184E00E944C20109247
:104120003B0210923C0210923D0210923E026091BE
:104130000F018AE090E00E94471E68EE73E080E085
:1041400090E00C942D191F93CF93DF9300D000D0F3
:1041500000D0CDB7DEB7E0910D04F0910E04808160
:10416000882309F415C163817481CE0101960E94F0
:10417000AF1A8D819E81892B49F065ED71E08981AF
:104180009A810E94FE3111E0892B09F010E0CE01E6
:1041900001960E94AA1A112309F4F5C020910D047A
:1041A00030910E04D90115964D915C911697FA0144
:1041B000808190E08830910508F0E5C08C5C9F4FCD
:1041C000D90112961C91FC010C949B2E123009F01F
:1041D000DAC0DA0111968C918130B9F028F0823082
:1041E00011F1833079F14CC080910F01882319F0CF
:1041F00010920F0103C081E080930F010E94702094
:1042000060910F018AE090E02BC0909125029923E4
:1042100019F01092250202C08093250260912502B8
:1042200088E090E01DC080912302882319F010924D
:10423000230203C081E0809323026091230280E285
:1042400090E00EC080912402882319F0109224027D
:1042500003C081E080932402609124028AE190E00F
:104260000E94471E0DC0123009F08DC090910501CB
:10427000FA01818189278093050181E00E944C2009
:1042800081E066C0113009F07EC061C0123009F0D3
:104290007AC0FA01A181A0931001F0EFAF9FD00185
:1042A00011242AEF30E00E94A12E60930101709347
:1042B00002018093030190930401DA0111966C913D
:1042C00086E090E042C0133009F05DC0FA016181E0
:1042D00060930E01828180930D018CE090E00E943A
:1042E000471E60910D018EE090E049C0123009F048
:1042F0004AC0DA0111966C9160930C0180E190E064
:1043000024C0153009F03FC0FA01618160930B01B0
:10431000828180930A018381809309018481809343
:10432000080182E190E00E94471E60910A0184E149
:1043300090E00E94471E6091090186E190E00E9492
:10434000471E6091080188E190E00E94471E83E0CB
:104350008093490218C01330B1F4DA0111966C91C0
:1043600011976093070112968C91809306018CE15E
:1043700090E00E94471E609106018EE190E00E944D
:10438000471E10934902E0910D04F0910E04108233
:1043900026960FB6F894DEBF0FBECDBFDF91CF914A
:1043A0001F910895382F20912E049091920221326E
:1043B00008F049C0809170028111FCCF42E0409327
:1043C000700230936F023FEF30936E0210926D02D5
:1043D00020936C02A2E7B2E04CE452E0FA013E2FD7
:1043E000341B321718F43D913193F9CF10924B02E0
:1043F00020914B02990F922B90934B0290914A027D
:10440000913061F410924A0290914B029093BB005C
:104410009091BC0093FDF8CF95EC01C095EE909380
:10442000BC00909170029230E1F390916E029F3F38
:1044300079F080916E02803241F080916E0280337B
:1044400031F084E005C081E003C082E001C083E078
:1044500010922F0410922E04109271020895EF9280
:10446000FF920F931F93CF93DF937C018B01C5E1E4
:10447000D4E08D819E810E942E1DB7018D819E8189
:104480000E94401C40E06EEB8D819E810E94EC1CDE
:104490008D819E810E94A11CF80180838D819E8167
:1044A0000E94A11CF80181838D819E810E94A11C24
:1044B000F80182838D819E810E94A11CF801838373
:1044C0008D819E810E94A11CF80184838D819E8133
:1044D0000E94A11CF80185838D819E810E94A11CF0
:1044E000F80186838D819E810E94A11CF80187833B
:1044F0008D819E810E94A11CF80180878D819E8103
:10450000DF91CF911F910F91FF90EF900C942E1D92
:10451000CF93DF93CDB7DEB729970FB6F894DEBF00
:104520000FBECDBFFC012081203109F1BE016F5FBC
:104530007F4F0E942F2268E0CE0101960E949E1BB1
:104540009985891310C08D818F3359F018F48F31FC
:1045500071F009C08F3519F08F3739F004C08BE046
:1045600007C08AE005C080E003C08CE001C089E09C
:1045700029960FB6F894DEBF0FBECDBFDF91CF9165
:1045800008950E94671960930F047093100480933C
:10459000110490931204089564EE71E083E992E0AF
:1045A0000C94E81ACF93DF93FC014481558160811C
:1045B000718183E992E00E94B717EC010E94CC223E
:1045C0008C0F9D1FDF91CF9108954F925F926F9254
:1045D0007F928F929F92AF92BF92CF92DF92EF9293
:1045E000FF920F931F93CF93DF93CDB7DEB72C9736
:1045F0000FB6F894DEBF0FBECDBF4C01562EA72ECE
:10460000CDB6DEB6FC0184818B879B859C5F940FC1
:104610009A87BA84EB2CF12C8DB79EB78E199F091F
:104620000FB6F8949EBF0FBE8DBF0DB71EB70F5FBC
:104630001F4F80E390E0A0E090E0A0E08F83988798
:10464000A9878F81EDB7FEB781838885F8018183C3
:10465000898582838B858383412C642D70E0F401EE
:10466000848195816817790788F43B01F4E06F0E27
:10467000711CC4014C870E94BD19FC018081F801A6
:10468000E60DF71D808343944C85E7CFA52DBA2D09
:1046900080E090E050E0841795075CF4EB85F0E053
:1046A0003496E80FF91F2D91E00FF11F208301963A
:1046B000F2CFBA94BA94F801B18269EC71E0CE01FC
:1046C00001960E94AF1AB701CE0101960E94FD1912
:1046D000CE0101960E94D222B12C8B2D90E08E1536
:1046E0009F0550F4F801E80FF91F608183E992E01B
:1046F0000E943B18B394F1CF0E94C12282E08093C4
:104700001304CE0101960E94AA1A0FB6F894DEBED9
:104710000FBECDBE2C960FB6F894DEBF0FBECDBF38
:10472000DF91CF911F910F91FF90EF90DF90CF908D
:10473000BF90AF909F908F907F906F905F904F90C1
:10474000089583E992E00E940418892B59F083E9C7
:1047500092E00E94E21762E070E080E090E00E9448
:104760002D19EFCF08958F929F92AF92BF92CF9263
:10477000DF92EF92FF920F931F93CF93DF93611518
:10478000710519F420E030E07EC07B018C01C0E0AF
:10479000D0E00E94671960939B0270939C02809303
:1047A0009D0290939E02E0919302F0919402068004
:1047B000F781E02D83E992E0099597FD0BC0F801A0
:1047C000EC0FFD1F2081022E000C330B8217930784
:1047D00009F552C00E94671980909B0290909C023C
:1047E000A0909D02B0909E02DC01CB01881999092E
:1047F000AA09BB098090970290909802A090990214
:10480000B0909A0288159905AA05BB0560F22FEFB2
:104810003FEF39C0209721F420E030E0E901B9CF23
:104820009E01A90141505109F801E40FF51F608173
:10483000062E000C770B86179707D1F4411551050A
:1048400069F3D801FE01E41BF50BE00FF11F60E0F6
:1048500070E0CD90D190CD1429F064177507F1F276
:104860009A01DFCF6F5F7F4F6417750790F3F5CF25
:1048700041155105A9F7D0CF9E012F5F3F4F2E154F
:104880003F0561F67FCF81E0232B09F080E0DF91C7
:10489000CF911F910F91FF90EF90DF90CF90BF903D
:1048A000AF909F908F900895FC0101900020E9F750
:1048B0003197BF01681B790B0C94B3232F923F9261
:1048C0004F925F926F927F928F929F92AF92BF9220
:1048D000CF92DF92EF92FF920F931F93CF93DF93CC
:1048E00000D000D000D0CDB7DEB73C01ADB6BEB62B
:1048F000FC01848195812C0155244201F6E08F0E44
:10490000911C720127E0E20EF11CEDB7FEB7EE1923
:10491000FF090FB6F894FEBF0FBEEDBF0DB71EB76F
:104920000F5F1F4F92E891839CE0F801928392E21F
:104930009383148285832DB63EB6F7E02F0E311C8B
:10494000C12CD12CC414D5046CF4B601C3010E944F
:10495000BD19FC018081F10181931F01FFEFCF1A86
:10496000DF0AF0CF8EEF8E0DF8018183E80DF91D7F
:10497000108269EC71E0CE0101960E94AF1AB70176
:10498000CE0101960E94FD19CE0101960E94D2220D
:1049900083E992E00E948218D12C8D2D90E08E1533
:1049A0009F0550F4F801E80FF91F608183E992E058
:1049B0000E943B18D394F1CF0E94C12283E992E078
:1049C0000E940418892BE9F40E94671900910F04D2
:1049D000109110042091110430911204AB01BC011C
:1049E000401B510B620B730B8091FE039091FF03F0
:1049F000092E000CAA0BBB0B481759076A077B0747
:104A0000E8F28DED91E00E945424882359F1109230
:104A1000080462E370E080E090E00E942D1987EEC8
:104A200091E00E945424882329F183E992E00E94B6
:104A3000E21783E992E00E94E21783E992E00E9484
:104A4000E21783E992E00E94E21783E992E00E9474
:104A5000E21783E992E00E94E21783E992E00E9464
:104A6000E21708C080910C04826092E0892780934D
:104A70000C0408C064E670E080E090E00E942D190C
:104A80000E94A123CE0101960E94AA1A0FB6F894A3
:104A9000BEBE0FBEADBE0FB6F894BEBE0FBEADBE5D
:104AA00026960FB6F894DEBF0FBECDBFDF91CF9133
:104AB0001F910F91FF90EF90DF90CF90BF90AF903C
:104AC0009F908F907F906F905F904F903F902F902E
:104AD00008959BB1937F892B8BB96EBD00000DB4F7
:104AE00007FEFDCF8EB55A9A0895CF93DF93C8EF96
:104AF000D1E060E088E00E9469252197D1F760E865
:104B000080E00E94692560E480E00E94692510929F
:104B10002C0410922D04DF91CF910895CF92DF9253
:104B2000EF92FF920F931F93CF93DF9377FF21C0F4
:104B30006A017B01EC01E881F9810190F081E02DAF
:104B40006DE209958C0144275527BA014C195D097E
:104B50006E097F092AE0CE010E94FD1A800F911F85
:104B6000DF91CF911F910F91FF90EF90DF90CF9049
:104B700008952AE0DF91CF911F910F91FF90EF9060
:104B8000DF90CF900C94FD1ACF93DF93BC0183E9A3
:104B900092E00E94E81AEC010E94CC228C0F9D1F2B
:104BA000DF91CF910895CF93DF93BC0183E992E029
:104BB0000E94C41AEC010E94CC228C0F9D1FDF9131
:104BC000CF9108950F931F93CF93DF9300D000D020
:104BD00000D0CDB7DEB769EC71E0CE0101960E943E
:104BE000AF1A62E070E0CE0101960E942D1ACE014C
:104BF00001960E94D2220EEF13E0F80160817181CC
:104C0000072E000C880B990B0E942D1960EE83E98A
:104C100092E00E943B1860E083E992E00E943B181A
:104C2000F8018685826092E0892786870E94C122EA
:104C300084E6F801858BCE0101960E94AA1A269679
:104C40000FB6F894DEBF0FBECDBFDF91CF911F919D
:104C50000F9108955C98549A61E070E080E090E0D4
:104C60000E942D19549880E090E04C9905C001965F
:104C700080382EE39207C9F75C98549A0895482F1C
:104C800050E060E070E02AE088E294E00C94FD1AC5
:104C9000E3E9F2E0A089B18982E08C93A485B5852F
:104CA0001C92A685B7858FEC8C93108EA489B5894C
:104CB00086E08C93A289B3898C9180618C93A289C0
:104CC000B3898C9188608C93A289B3898C91806818
:104CD0008C930288F389E02D80818F7D80830895F5
:104CE00085ED8093BC008091BC0084FDFCCF1092C8
:104CF0007002089540919C04262F30E0240F311D4E
:104D000021323105DCF4209170022430C9F4FC0119
:104D100080E090E0861758F430919C042191DC01EA
:104D2000A658BB4FA30FB11D2C930196F3CF8091D2
:104D30009C04680F60939C0480E0089581E00895CE
:104D400082E008950895E091310480913004E817DD
:104D500030F4F0E0E45BFB4F808190E008958FEF4A
:104D60009FEF08959091310480913004981750F48A
:104D7000E92FF0E0E45BFB4F208130E09F5F9093F0
:104D8000310402C02FEF3FEFC90108958091300434
:104D900090E020913104821B91090895CF92DF9217
:104DA000EF92FF920F931F93CF93DF937C01262FF7
:104DB000972F8A0180917102882391F0C62FD72FF7
:104DC0006E01C40ED51ECC15DD0571F06991D701B9
:104DD000ED91FC910190F081E02DC7010995F3CF91
:104DE000642F822F0E947A26C801DF91CF911F91F4
:104DF0000F91FF90EF90DF90CF900895CF93DF93C6
:104E00001F92CDB7DEB76983209171022223D1F0C2
:104E100020912E04203240F021E030E0FC01338369
:104E2000228380E090E015C080912F04E82FF0E00D
:104E3000EE58FD4F998190838F5F80932F0480936C
:104E40002E0405C061E0CE0101960E947A2681E021
:104E500090E00F90DF91CF910895833081F028F496
:104E6000813099F08230A1F008958730A9F0883020
:104E7000B9F08430D1F4809180008F7D03C080919F
:104E800080008F7780938000089584B58F7702C06B
:104E900084B58F7D84BD08958091B0008F7703C065
:104EA0008091B0008F7D8093B00008958F929F9283
:104EB000AF92BF92CF92DF92EF92FF920F931F9328
:104EC000CF93DF93FC01C081D18120917804309190
:104ED0007904C217D3070CF04BC09E01220F331F79
:104EE000E0917604F0917704E20FF31F80809180C7
:104EF000C170DD27F1E0CF27209719F404E610E018
:104F000002C00CE91FEF7A015B016C01040F151F51
:104F1000B801C4010E94031E892B99F40E0D1F1DB8
:104F2000B801C4010E94031E892B71F4B8016E0DF3
:104F30007F1DC4010E94031E892BE9F023E030E0AD
:104F400005C021E030E002C022E030E0F5018081C0
:104F500091810196821793073CF0F501118210822E
:104F6000F60180819181019691838083CE0105C0F5
:104F700081E090E002C08FEF9FEFDF91CF911F9112
:104F80000F91FF90EF90DF90CF90BF90AF909F90E8
:104F90008F9008951F920F920FB60F9211242F93A6
:104FA0003F934F935F936F937F938F939F93AF93B1
:104FB000BF93EF93FF938091B900887F803609F407
:104FC0009CC068F5883209F45BC090F4803109F424
:104FD00054C038F4882309F4F6C0883009F44DC071
:104FE000F6C0883109F44CC0803209F45DC0EFC0CE
:104FF000803409F468C048F4803309F455C088331C
:1050000009F0E5C080936E02D8C0803509F44FC026
:10501000883509F45DC0883409F0D9C0D6C0883914
:1050200009F4C7C0A8F4883709F467C038F4883693
:1050300009F463C0803709F460C0C9C0883809F436
:10504000B8C0803909F45FC0803809F0C0C05BC0C7
:10505000803B09F486C038F4803A09F466C0883A87
:1050600009F47FC0B4C0803C09F4A7C0883C09F4AF
:10507000A4C0883B09F48AC0AAC080914B0210C02A
:1050800090916D0280916C02981770F5E0916D021D
:1050900081E08E0F80936D02F0E0E45BFD4F808134
:1050A0008093BB0085EC86C080936E028EC0E09139
:1050B0006D0281E08E0F80936D028091BB00F0E065
:1050C000E45BFD4F808390916D0280916C026EC015
:1050D000E0916D0281E08E0F80936D028091BB00A4
:1050E000F0E0E45BFD4F808380916F0281116DC021
:1050F00081E080934A0284EA61C083E08093700279
:105100001092C004CFCF8091C004803208F051C00B
:10511000E091C00481E08E0F8093C0048091BB00B9
:10512000F0E0E056FB4F8083BDCF85EC8093BC0060
:10513000109270028091C004803230F4E091C0047B
:10514000F0E0E056FB4F10826091C00470E0E09107
:105150009E04F0919F0480EA94E009951092C004A7
:1051600036C084E08093700210929D0410929C04DB
:10517000E0919A04F0919B04099580919C0481111F
:1051800005C081E080939C0410927A04E0919D0414
:1051900081E08E0F80939D04F0E0E658FB4F808104
:1051A0008093BB0090919D0480919C04981708F413
:1051B00079CF85E88093BC000AC085EC8093BC0061
:1051C0001092700204C010926E020E947026FF912D
:1051D000EF91BF91AF919F918F917F916F915F916F
:1051E0004F913F912F910F900FBE0F901F901895E8
:1051F000CF93DF93282F30E0F901E356FA4F8491E3
:10520000F901EB58FA4FD491F901EF59FA4FC491D3
:10521000CC2391F081110E942D27EC2FF0E0EE0FAE
:10522000FF1FE95AFA4FA591B491EC91ED2381E06B
:1052300090E021F480E002C080E090E0DF91CF9127
:1052400008951F93CF93DF93282F30E0F901E356A1
:10525000FA4F8491F901EB58FA4FD491F901EF59C3
:10526000FA4FC491CC23C9F0162F81110E942D272B
:10527000EC2FF0E0EE0FFF1FED56FA4FA591B49121
:105280008FB7F894111105C09C91ED2FE095E9239B
:1052900002C0EC91ED2BEC938FBFDF91CF911F916A
:1052A00008951092700281E080936F0210924A027A
:1052B00061E082E10E94212961E083E10E942129CD
:1052C000E9EBF0E080818E7F808380818D7F808319
:1052D00088E48093B80085E48093BC000895CF9360
:1052E000DF9390E0FC01EB58FA4F2491FC01EF5959
:1052F000FA4F8491882361F190E0880F991FFC0197
:10530000E757FA4FC591D491FC01ED56FA4FA5919C
:10531000B491611109C09FB7F894888120958223C8
:105320008883EC912E230BC0623061F49FB7F89410
:105330003881822F809583238883EC912E2B2C93A8
:105340009FBF06C08FB7F894E8812E2B28838FBFAC
:10535000DF91CF910895CF92DF92EF92FF920F935A
:105360001F93CF93DF93CDB7DEB727970FB6F8948F
:10537000DEBF0FBECDBF6DEE71E0CE0101960E9483
:10538000AF1A8AED95E00E94D32564E670E080E0D4
:1053900090E00E942D1981ED95E08F8361E070E02F
:1053A000CE0107960E94B323811102C010E019C0FC
:1053B00000E011E0E02EF12C8D819E81E816F906C7
:1053C00080F483E992E00E94E217D82EB701CE0163
:1053D00001960E94BD19FC0180818D1110E00F5FC4
:1053E000E9CFCE0101960E94AA1A1111F2C061E024
:1053F0008AE00E946F2961E08AE00E9421291092D0
:1054000009040E94482688E893E1A0E0B0E0809378
:10541000970290939802A0939902B0939A0260E049
:105420008AE00E94212983E992E00E948218E0919B
:10543000A502F091A60280818F7E8083E091A50273
:10544000F091A6028081877F8083E091A502F09190
:10545000A60280818F778083E091A502F091A60259
:1054600080818F7D80838091AD028093AC0264E661
:1054700070E080E090E00E942D1961E08AE00E94D7
:10548000212968EE73E080E090E00E942D190E94CF
:1054900048268EEC95E00E94D3250E94C12283E924
:1054A00092E00E940418892BA9F40E9467190091C8
:1054B0000F04109110042091110430911204DC01AA
:1054C000CB01801B910BA20BB30B803D9740A10534
:1054D000B10528F388EF91E00E945424882309F451
:1054E0007DC080E880930C0489EC95E00E94D32570
:1054F00064E670E080E090E00E942D1905E010E085
:1055000081EB95E00E94D3256BEF71E0CE0101960F
:105510000E94AF1A6DEE71E0CE0101960E94701AE2
:1055200064E971E0CE0101960E94701A66E072E0B3
:10553000CE0101960E94701A66E971E0CE010196D3
:105540000E94701ACE0101960E94D2220E94C122AE
:1055500083E992E00E940418892BA9F40E9467193C
:10556000C0900F04D0901004E0901104F090120449
:10557000DC01CB018C199D09AE09BF09803D974024
:10558000A105B10528F364E670E080E090E00E9498
:105590002D1988EF91E00E945424F82ECE01019637
:1055A0000E94AA1AFF2031F080910C048160809340
:1055B0000C0404C00150110909F0A2CF64EF71E09E
:1055C00080E090E00E942D198DEB95E00E94D3259C
:1055D00005C080910C04816080930C0427960FB65F
:1055E000F894DEBF0FBECDBFDF91CF911F910F9119
:1055F000FF90EF90DF90CF9008958E3008F08E509E
:105600008770806480937C0080917A0080648093AE
:105610007A0080917A0086FDFCCF809178002091FD
:10562000790090E0922B08950895CF93DF93CDB742
:10563000DEB761970FB6F894DEBF0FBECDBF78948A
:1056400084B5826084BD84B5816084BD85B5826087
:1056500085BD85B5816085BD80916E008160809338
:105660006E001092810080918100826080938100A1
:1056700080918100816080938100809180008160B1
:10568000809380008091B10084608093B10080910C
:10569000B00081608093B00080917A008460809334
:1056A0007A0080917A00826080937A0080917A00FB
:1056B000816080937A0080917A00806880937A007C
:1056C0001092C100109231041092300410922F04F5
:1056D00010922E040E94512983E00E944C2060E029
:1056E00086E00E946F2960E087E00E946F2960E0F9
:1056F00088E00E946F2960E089E00E946F298BB1E9
:105700008C608BB98AB18C608AB961E081E10E94BA
:105710006F2961E081E10E9421291FB7F8948091EF
:105720002702811127C0EBE6F5E08491EFE7F5E071
:105730009491E82FF0E0EE0FFF1FE757FA4FA59185
:10574000B491EC91E92321F461E08AE00E942129DF
:1057500061E08AE00E946F298CB580618CBD8CB5B8
:1057600080648CBD61E08DE00E946F2961E08BE078
:105770000E946F29809127028F5F809327021FBFAD
:1057800060E081E10E94212961E070E080E090E02A
:105790000E942D1961E081E10E94212961E280E0EF
:1057A0000E9469256CEB80E00E94692564E080E03E
:1057B0000E94692562E180E00E94692560E280E044
:1057C0000E9469256CE080E00E9469250E94752591
:1057D0000E94752566E475E088E294E00E94C41A90
:1057E0000E94AB290E9475256EE275E088E294E084
:1057F0000E94C41A80E090E00E94491E11E08F3F91
:1058000009F010E082E090E00E94491E833209F026
:1058100010E084E090E00E94491E883409F074C0D2
:10582000112309F471C069E075E088E294E00E94F8
:10583000C41A86E090E00E94491E8093100190EF08
:10584000899FD00111242AEF30E00E94A12E60939D
:10585000010170930201809303019093040188E099
:1058600090E00E94491E809325028AE090E00E9409
:10587000491E80930F018CE090E00E94491E8093A6
:105880000E018EE090E00E94491E80930D0180E1A0
:1058900090E00E94491E80930C0182E190E00E94FA
:1058A000491E80930B0184E190E00E94491E809381
:1058B0000A0186E190E00E94491E8093090188E177
:1058C00090E00E94491E809308018AE190E00E94C6
:1058D000491E809324028CE190E00E94491E80932F
:1058E00007018EE190E00E94491E8093060180E24C
:1058F00090E00E94491E8093230282E290E00E9481
:10590000491E809305017BC06BE175E088E294E05D
:105910000E94C41A00E010E060E0C8010E94471E27
:105920000F5F1F4F011584E01807B1F76FEF80E09C
:1059300090E00E94471E63E282E090E00E94471ED2
:1059400068E484E090E00E94471E6091100186E0C8
:1059500090E00E94471E6091250288E090E00E943E
:10596000471E60910F018AE090E00E94471E6091FF
:105970000E018CE090E00E94471E60910D018EE0C8
:1059800090E00E94471E60910C0180E190E00E942F
:10599000471E60910B0182E190E00E94471E6091DA
:1059A0000A0184E190E00E94471E6091090186E1AE
:1059B00090E00E94471E6091080188E190E00E94FB
:1059C000471E609124028AE190E00E94471E609188
:1059D00007018CE190E00E94471E609106018EE174
:1059E00090E00E94471E6091230280E290E00E94B6
:1059F000471E6091050182E290E00E94471EE091FF
:105A00001A04F0911B04138615861486DF011B9679
:105A100033961E92AE17BF07E1F71092190411E0FA
:105A2000BE01665F7F4F80911A0490911B040E9413
:105A3000AB1B882309F450C067E0CE010A960E9490
:105A40009E1B99898913ECCF80911504811126C082
:105A500080911A0490911B040E942E1DBE01665F66
:105A60007F4F80911A0490911B040E94401C40E0DB
:105A700064EB80911A0490911B040E94EC1C8091AD
:105A80001A0490911B040E947D1C082F80911A0417
:105A900090911B040E942E1D0023D1F1BE016F5F67
:105AA0007F4FCE010A960E942F2200911604CE014C
:105AB0000A960E948822801718F48091160404C068
:105AC000CE010A960E9488228093160480911904C0
:105AD0008F5F80931904A4CFF89482E08093B00084
